:020000021000EC
:10E000000C94A0F10C94C7F10C94C7F10C94C7F1D7
:10E010000C94C7F10C94C7F10C94C7F10C94C7F1A0
:10E020000C94C7F10C94C7F10C94C7F10C94C7F190
:10E030000C94C7F10C94C7F10C94C7F10C94C7F180
:10E040000C94C7F10C94C7F10C94C7F10C94C7F170
:10E050000C94C7F10C94C7F10C94C7F10C94C7F160
:10E060000C94C7F10C94C7F10C94C7F10C94C7F150
:10E070000C94C7F10C94C7F10C94C7F10C94C7F140
:10E080000C94C7F10C94C7F10C94C7F10C94C7F130
:10E090000C94C7F10C94C7F10C94C7F10C94C7F120
:10E0A0000C94C7F10C94C7F10C94C7F10C94C7F110
:10E0B0000C94C7F10C94C7F10C94C7F10C94C7F100
:10E0C0000C94C7F10C94C7F10C94C7F10C94C7F1F0
:10E0D0000C94C7F10C94C7F10C94C7F10C94C7F1E0
:10E0E0000C94C7F1414A4B218093C6008091C00037
:10E0F00086FFFCCF8091C00080648093C0000895AB
:10E1000041546D656761313238300073746B35305E
:10E1100030563220626F6F746C6F6164657220627A
:10E1200079204D4C532C20666978656420627920F3
:10E13000414A4B00426F6F746C6F616465723E00C0
:10E14000436F6D70696C6564206F6E203D200043E5
:10E1500050552054797065202020203D20005F5FBD
:10E160004156525F415243485F5F3D200041565245
:10E17000204C696243205665723D2000474343208E
:10E1800056657273696F6E203D20004350552049DB
:10E19000442020202020203D20004C6F77206675F1
:10E1A0007365202020203D2000486967682066753F
:10E1B00073652020203D20004578742066757365C6
:10E1C000202020203D20004C6F636B206675736516
:10E1D0002020203D20004D61792020372032303131
:10E1E0003900322E302E3000342E392E3200562394
:10E1F000202020414444522020206F7020636F640F
:10E20000652020202020696E737472756374696FB5
:10E210006E2061646472202020496E74657272758C
:10E220007074006E6F20766563746F7200726A6D31
:10E23000702020006A6D7020005768617420706F34
:10E2400072743A00506F7274206E6F742073757020
:10E25000706F72746564004D75737420626520611F
:10E26000206C657474657200200057726974696E61
:10E27000672045450052656164696E672045450029
:10E2800045452065727220636E743D00504F5254B4
:10E2900000466C617368577269746520203D2000E8
:10E2A000303D5A65726F2061646472003F3D435097
:10E2B0005520737461747300403D454550524F4D75
:10E2C000207465737400423D426C696E6B204C454E
:10E2D0004400453D44756D7020454550524F4D00FA
:10E2E000463D44756D7020464C41534800483D48BA
:10E2F000656C70004C3D4C69737420492F4F205061
:10E300006F72747300513D5175697400523D4475CC
:10E310006D702052414D00563D73686F7720696ED5
:10E320007465727275707420566563746F727300D1
:10E33000593D506F727420626C696E6B002A000048
:10E3400011241FBECFEFD1E2DEBFCDBF12E0A0E0AF
:10E35000B2E0E0EBFBEF01E00BBF02C007900D92D3
:10E36000A430B107D9F722E0A4E0B2E001C01D92C9
:10E37000A231B207E1F70E94D9F30C94D6FD01E275
:10E380000EBF0FEF0DBF11241FBE0C94D9F30C94D8
:10E3900000F0CF92DF92EF92FF92CF93FC01448185
:10E3A0005581668177816A017B01CC24A081B1818E
:10E3B00022813381C11480EED80681E0E806F104A1
:10E3C00008F031C083E0F601E0925B0080935700D3
:10E3D000E89507B600FCFDCFC1E08C911296FD01D7
:10E3E0003197E08190E09E2B0C01FA0160935B0075
:10E3F000C0935700E89511244E5F5F4F6F4F7F4FDA
:10E40000225031091216130644F385E0F601E0921A
:10E410005B0080935700E89507B600FCFDCF81E1D3
:10E4200080935700E895CF91FF90EF90DF90CF90C9
:10E43000089520E030E02817390749F0EFECF7E0C5
:10E440003197F1F700C000002F5F3F4FF4CF0895E0
:10E45000CF92DF92EF92FF926B017C01C40ED11C30
:10E46000E11CF11CEBBEF6018791882341F09FEF80
:10E47000C91AD90AE90AF90A0E9474F0F3CFFF9089
:10E48000EF90DF90CF9008958DE00E9474F08AE0C5
:10E490000C9474F00E9428F20C9444F2CF93DF9312
:10E4A000EC018991882319F00E9474F0FACFDF9172
:10E4B000CF910895CF93C82F982F92959F7080E3A6
:10E4C000890F8A3310F087E3890F0E9474F0CF70B0
:10E4D00080E38C0F8A3310F087E38C0FCF910C947C
:10E4E00074F00F931F93CF93DF93EC018B0185366C
:10E4F00091051CF4633071054CF0CE0164E670E0C8
:10E500000E9476FD80E3860F0E9474F0CB30D10527
:10E510001CF4023011056CF0CE0164E670E00E943C
:10E5200076FD6AE070E00E9476FD80E3860F0E942F
:10E5300074F0CE016AE070E00E9476FD805DDF91AC
:10E54000CF911F910F910C9474F08091C00087FFC0
:10E55000FCCF8091C6000895CF93C82F6CE872EE6F
:10E56000CB01A0E0B0E0BC01CD01816040E00E94A1
:10E5700028F28C2F0E9474F0CF910C9444F260EA40
:10E5800072EECB01A0E0B0E0BC01CD01816040E0C3
:10E590000E944AF26CEA72EECB01A0E0B0E0BC014E
:10E5A000CD01816040E00E944AF268EB72EECB013F
:10E5B000A0E0B0E0BC01CD01816040E00E944AF2E1
:10E5C00066EC72EECB01A0E0B0E0BC01CD01816051
:10E5D00040E00E944AF262ED72EECB01A0E0B0E0B2
:10E5E000BC01CD01816040E00E944AF260EE72EE13
:10E5F000CB01A0E0B0E0BC01CD01816040E00E9411
:10E600004AF26DEE72EECB01A0E0B0E0BC01CD01AC
:10E61000816040E00E944AF264EF72EECB01A0E01C
:10E62000B0E0BC01CD01816040E00E944AF265E0AB
:10E6300073EECB01A0E0B0E0BC01CD01816040E011
:10E640000E944AF26CE073EECB01A0E0B0E0BC01A6
:10E65000CD01816040E00E944AF267E173EECB0198
:10E66000A0E0B0E0BC01CD01816040E00E944AF230
:10E6700060E373EECB01A0E0B0E0BC01CD018160AE
:10E6800040E00C944AF22F923F924F925F926F9229
:10E690007F928F929F92AF92BF92CF92DF92EF9232
:10E6A000FF920F931F93CF93DF93CDB7DEB7A09761
:10E6B0000FB6F894DEBF0FBECDBF282E6A017B01D6
:10E6C000198A00E110E08EE2382E81E0C816D104EC
:10E6D000E806F10418F08E2D0E945AF28D2D0E944A
:10E6E0005AF28C2D0E945AF280E20E9474F08DE260
:10E6F0000E9474F080E20E9474F0FE0131965F0186
:10E70000260137014601F0E18F0E911C81E02816A9
:10E7100061F0281630F092E029120BC0F20110814E
:10E7200008C06BBEF201179104C0C2010E94C0FD77
:10E73000182F812F0E945AF280E20E9474F080EE1E
:10E74000810FF5018F3510F4108301C03082FFEF87
:10E750004F1A5F0A6F0A7F0A8FEFA81AB80A84144B
:10E760009504A1F690E1C90ED11CE11CF11CCE016B
:10E7700001960E944EF20E9444F2015009F0A5CF8A
:10E78000A0960FB6F894DEBF0FBECDBFDF91CF913C
:10E790001F910F91FF90EF90DF90CF90BF90AF90BF
:10E7A0009F908F907F906F905F904F903F902F90B1
:10E7B0000895CF93DF93CDB7DEB7C054D1400FB6E5
:10E7C000F894DEBF0FBECDBF01E20EBF0FEF0DBF4D
:10E7D00094B7F894A89514BE8091600088618093E6
:10E7E000600010926000789493FF05C0E0910402ED
:10E7F000F09105020995279A2F9A8091C0008260B6
:10E800008093C00080E18093C40088E18093C100C0
:10E810000000C12CD12C760147EC842E4BE1942EC4
:10E82000A12CB12C00E010E08091C00087FF05C052
:10E83000A8014F5F5F4FB1F326C001151105C1F765
:10E8400025E02A95F1F700003FEFC31AD30AE30A47
:10E85000F30A91E080E041E2C4164EE4D406E104FC
:10E86000F10408F490E0092F182FC701B601A501A3
:10E8700094010E948AFD672B682B692BA9F685B14C
:10E88000805885B9D1CF4130510511F00C9446FD27
:10E89000C55DDE4F19821882CB52D14000E010E0F6
:10E8A000C65DDE4F1882CA52D140712C212C312C0A
:10E8B000C12CD12C760184E392EE4C01A12CB12C19
:10E8C000D501C401A160CB5CDE4F88839983AA8304
:10E8D000BB83C553D1408DE292EE4C01A12CB12CEB
:10E8E000D501C401A160C75CDE4F88839983AA83E8
:10E8F000BB83C953D14080E090E060E041305105D6
:10E90000E1F08824839432E1932E3AE7A32EB12CD0
:10E910002091C00027FD11C051E0851A9108A1087F
:10E92000B108B1F7ABBEF401279136912F3F3F4FAD
:10E9300041F3EE27FF270994E4CF4091C600C55D5F
:10E94000DE4F28813981CB52D1402F5F3F4FC55DCB
:10E95000DE4F39832883CB52D140413209F049C67A
:10E960002A30310508F093C60F5F1F4F03301105A1
:10E9700009F08FC625E0A22EB12C09E110E081E25A
:10E980000E9474F001501109D1F70E9444F231E065
:10E99000A31AB10891F710920E0210920F02109272
:10E9A00010021092110210920A0210920B021092A1
:10E9B0000C0210920D0210920602109207021092A1
:10E9C0000802109209028BE091EEA0E0B0E09C01F9
:10E9D000AD014160CA5DDE4F288339834A835B8382
:10E9E000C652D14040E0CA5DDE4F688179818A819C
:10E9F0009B81C652D1400E944AF20E94BFF284E33A
:10EA000091EEA0E0B0E09C01AD014160C35DDE4F3E
:10EA1000288339834A835B83CD52D14083E292EECF
:10EA2000A0E0B0E09C01AD014160CF5CDE4F2883E7
:10EA300039834A835B83C153D14040E0C35DDE4FDD
:10EA4000688179818A819B81CD52D1400E9428F2D0
:10EA50000E94A5F2182F803608F01F75103230F092
:10EA6000812F0E9474F080E20E9474F0163409F441
:10EA7000BDC208F011C1103409F494C108F005C1F9
:10EA8000103309F473C11F3309F0A7C56CEA72EEA5
:10EA9000CB01A0E0B0E0BC01CD01816042E00E946A
:10EAA0004AF240E0CA5DDE4F688179818A819B81AC
:10EAB000C652D1400E944AF260E471EECB01A0E060
:10EAC000B0E0BC01CD01816040E00E9428F266ED1B
:10EAD00071EECB01A0E0B0E0BC01CD01816040E06F
:10EAE0000E944AF26FE471EECB01A0E0B0E0BC01FD
:10EAF000CD01816040E00E9428F260E071EECB0120
:10EB0000A0E0B0E0BC01CD01816040E00E944AF28B
:10EB10006EE571EECB01A0E0B0E0BC01CD018160FB
:10EB200040E00E9428F261E070E083E390E00E9400
:10EB300071F20E9444F26CE771EECB01A0E0B0E00C
:10EB4000BC01CD01816040E00E9428F268EE71EEC8
:10EB5000CB01A0E0B0E0BC01CD01816040E00E94AB
:10EB60004AF26DE671EECB01A0E0B0E0BC01CD0150
:10EB7000816040E00E9428F262EE71EECB01A0E0DD
:10EB8000B0E0BC01CD01816040E00E944AF26BE838
:10EB900071EECB01A0E0B0E0BC01CD01816040E0AE
:10EBA0000E9428F28EE10E945AF287E90E945AF2EE
:10EBB00083E00E945AF20E9444F26AE971EECB01AE
:10EBC000A0E0B0E0BC01CD01816040E00E9428F2ED
:10EBD00019E0E0E0F0E01093570084910E945AF2AF
:10EBE0000E9444F269EA71EECB01A0E0B0E0BC0102
:10EBF000CD01816040E00E9428F2E3E0F0E0109354
:10EC0000570084910E945AF20E9444F268EB71EE20
:10EC1000CB01A0E0B0E0BC01CD01816040E00E94EA
:10EC200028F2E2E0F0E01093570084910E945AF23B
:10EC30000E9444F267EC71EECB01A0E0B0E0BC01B1
:10EC4000CD01816040E00E9428F2E1E0F0E0109305
:10EC5000570084910E945AF20E9444F261E972EED8
:10EC6000CB01A0E0B0E0BC01CD01816040E00E949A
:10EC700028F281E00E945AF280EE0E945AF284EE5D
:10EC80000E945AF20E9444F2D8CE123409F45EC1B6
:10EC9000153409F47BC1A1C4113509F4DFC198F51D
:10ECA000183409F4CDC11C3409F097C464EF72EE36
:10ECB000CB01A0E0B0E0BC01CD01816042E00E9448
:10ECC0004AF281E40E94ACF282E40E94ACF283E456
:10ECD0000E94ACF284E40E94ACF285E40E94ACF2A3
:10ECE00086E40E94ACF287E40E94ACF288E40E94C1
:10ECF000ACF28AE40E94ACF28BE40E94ACF28CE4A9
:10ED00000E94ACF29ACE163509F4B8C1193509F44F
:10ED100055C3123509F061C46CE073EECB01A0E07D
:10ED2000B0E0BC01CD01816042E00E944AF2409116
:10ED30000E0250910F02609110027091110282E058
:10ED40000E9443F380910E0290910F02A091100255
:10ED5000B09111029F5FAF4FBF4F80930E0290930F
:10ED60000F02A0931002B093110267CE60EA72EE18
:10ED7000CB01A0E0B0E0BC01CD01816042E00E9487
:10ED80004AF210920A0210920B0210920C02109298
:10ED90000D0210920E0210920F02109210021092A9
:10EDA000110299C068EB72EECB01A0E0B0E0BC01AB
:10EDB000CD01816042E00E944AF26AE672EECB0128
:10EDC000A0E0B0E0BC01CD01816040E00E944AF2C9
:10EDD0000E9444F2812C912C540188E692EE2C0181
:10EDE000612C712C689460F8CA5DDE4F888199812E
:10EDF000AA81BB81C652D140880D991DAA1DBB1D99
:10EE0000ABBFFC0117911A32D9F0811442E094068D
:10EE1000A104B104A9F0612FC4010E94C8FD111121
:10EE200006C040E0C301B2010E9428F203C0812F56
:10EE30000E9474F03FEF831A930AA30AB30AD4CF57
:10EE40000E9444F20E9444F265E772EECB01A0E01A
:10EE5000B0E0BC01CD01816040E00E944AF20E9416
:10EE600044F2812C912C540100E010E088E692EEEF
:10EE70002C01612C712C689460F8CA5DDE4F88818A
:10EE80009981AA81BB81C652D140880D991DAA1DC6
:10EE9000BB1DABBFFC012791CE5DDE4F2883C25264
:10EEA000D1402A3209F50E9444F20E9444F260E8FF
:10EEB00072EECB01A0E0B0E0BC01CD01816040E08A
:10EEC0000E9428F261E070E0C8010E9471F20E9485
:10EED00044F20E9444F2109206021092070210922D
:10EEE000080210920902A9CD811432E09306A10410
:10EEF000B104C9F2C4010E94C0FD282F81110BC0CA
:10EF000040E0C301B201C35CDE4F2883CD53D14042
:10EF10000E9428F207C0C35CDE4F2883CD53D14046
:10EF20000E9474F0C35CDE4F2881CD53D140CE5D8A
:10EF3000DE4F5881C252D140251711F00F5F1F4F8D
:10EF40008FEF881A980AA80AB80A97CF66EC72EE73
:10EF5000CB01A0E0B0E0BC01CD01816042E00E94A5
:10EF60004AF2279A2F9A8091C00087FD0CC02F98F3
:10EF700084E690E00E9419F22F9A84E690E00E94C5
:10EF800019F2F1CF12B80E94A5F257CD62ED72EEE0
:10EF9000CB01A0E0B0E0BC01CD01816042E00E9465
:10EFA0004AF2409106025091070260910802709166
:10EFB000090281E00E9443F38091060290910702CA
:10EFC000A0910802B09109029F5FAF4FBF4F80939D
:10EFD000060290930702A0930802B09309028115DC
:10EFE0009041A105B10508F428CD75CF60EE72EE11
:10EFF000CB01A0E0B0E0BC01CD01816042E00E9405
:10F000004AF240910A0250910B0260910C027091F9
:10F010000D0280E00E9443F380910A0290910B025E
:10F02000A0910C02B0910D029F5FAF4FBF4F809334
:10F030000A0290930B02A0930C02B0930D02FDCC38
:10F040006DEE72EECB01A0E0B0E0BC01CD018160BD
:10F0500042E00E944AF20E94BFF2EFCC65E073EEFC
:10F06000CB01A0E0B0E0BC01CD01816042E00E9494
:10F070004AF200E010E0552453941EC367E173EE9A
:10F08000CB01A0E0B0E0BC01CD01816042E00E9474
:10F090004AF260E071EECB01A0E0B0E0BC01CD012E
:10F0A000816040E00E944AF26EEE71EECB01A0E07A
:10F0B000B0E0BC01CD01816040E00E944AF200E076
:10F0C00010E0412C512C3201A30192015695479535
:10F0D00037952795CE5DDE4F288339834A835B833E
:10F0E000C252D1400F5F1F4F62E070E0C8010E9422
:10F0F00071F280E20E9474F08DE20E9474F080E26E
:10F100000E9474F080E00E945AF2CE5DDE4F88814A
:10F11000C252D1400E945AF280E20E9474F08DE304
:10F120000E9474F080E20E9474F06BBEF20197902E
:10F13000D301C2010196A11DB11DABBFFC01879097
:10F14000D301C2010296A11DB11DABBFFC01A79066
:10F15000D301C2010396A11DB11DABBFFC01B79045
:10F1600034E0430E511C611C711C482D50E060E0DE
:10F1700070E0762F652F542F4427490D511D611DD6
:10F18000711D882DC35CDE4F4883CD53D140C25CD6
:10F19000DE4F5883CE53D140C15CDE4F6883CF53DE
:10F1A000D140C05CDE4F7883C054D1400E945AF2F7
:10F1B00080E20E9474F0892D0E945AF280E20E943F
:10F1C00074F08B2D0E945AF280E20E9474F08A2D16
:10F1D0000E945AF280E20E9474F0C35CDE4F4881C4
:10F1E000CD53D140C25CDE4F5881CE53D140C15C7B
:10F1F000DE4F6881CF53D140C05CDE4F7881C05470
:10F20000D1404F3F8FEF58076105710561F440E031
:10F21000CF5CDE4F688179818A819B81C153D14067
:10F220000E9428F2C4C0DB01CA018827907CAA276B
:10F23000BB278115904CA105B105C9F54A015B01B9
:10F24000FFE39F22AA24BB24CE5DDE4F88819981F3
:10F25000AA81BB81C252D140880D991DAA1DBB1D38
:10F260009C01AD01220F331F441F551FCE5DDE4FA1
:10F27000288339834A835B83C252D14040E0C75C14
:10F28000DE4F688179818A819B81C953D1400E9478
:10F2900028F2892D0E945AF2882D0E945AF280E2AB
:10F2A0000E9474F08EE30E9474F080E070C04E7093
:10F2B0005E7F662777274C3054496105710509F058
:10F2C00076C08B2D90E0A0E0B0E0BA2FA92F982F48
:10F2D00088278A0D911DA11DB11D492D417050E057
:10F2E00060E070E0BA0155274427480F591F6A1F94
:10F2F0007B1F892D807F90E0A0E0B0E0E1E1880FE6
:10F30000991FAA1FBB1FEA95D1F7840F951FA61F4F
:10F31000B71F282D2170822E912CA12CB12CF5E144
:10F32000880C991CAA1CBB1CFA95D1F7880E991E53
:10F33000AA1EBB1EA5019401220F331F441F551F97
:10F34000CE5DDE4F288339834A835B83C252D1402E
:10F3500040E0CB5CDE4F688179818A819B81C55317
:10F36000D1400E9428F28A2D0E945AF2892D0E94D3
:10F370005AF2882D0E945AF280E20E9474F08EE3C5
:10F380000E9474F0CC5DDE4F8881C452D1400E944F
:10F390005AF2CD5DDE4F8881C352D1400E945AF2AD
:10F3A000CE5DDE4F8881C252D1400E945AF20E9447
:10F3B00044F20933110509F087CE3FCB60E373EEC9
:10F3C000CB01A0E0B0E0BC01CD01816042E00E9431
:10F3D0004AF269E372EECB01A0E0B0E0BC01CD01DE
:10F3E000816040E00E9428F20E94A5F2182F1F754C
:10F3F000812F0E9474F00E9444F28FEB810F8A31BA
:10F4000008F0E8C0163409F478C0A8F4133409F4FD
:10F4100046C040F4113439F1123409F0D8C08FEFEE
:10F4200084B92FC0143409F44AC0153409F0CFC090
:10F430008FEF8DB954C01A3409F490C050F41734CA
:10F4400009F46BC0183409F0C2C08FEF809301013A
:10F4500074C01B3409F496C01C3409F0B8C08FEF97
:10F4600080930A01A3C08FEF81B98091C00087FD0E
:10F4700089CD82B1809582B988EC90E00E9419F222
:10F48000F4CF8091C00087FD08C085B1809585B913
:10F4900088EC90E00E9419F2F4CF15B874CD8FEF8C
:10F4A00087B98091C00087FD08C088B1809588B970
:10F4B00088EC90E00E9419F2F4CF18B864CD8FEF79
:10F4C0008AB98091C00087FD08C08BB180958BB947
:10F4D00088EC90E00E9419F2F4CF1BB854CD8091D3
:10F4E000C00087FD08C08EB180958EB988EC90E091
:10F4F0000E9419F2F4CF1EB846CD8FEF80BB8091E9
:10F50000C00087FD08C081B3809581BB88EC90E086
:10F510000E9419F2F4CF11BA36CD8FEF83BB8091E0
:10F52000C00087FD08C084B3809584BB88EC90E060
:10F530000E9419F2F4CF14BA26CD8091C00087FD45
:10F540000AC08091020180958093020188EC90E0CE
:10F550000E9419F2F2CF1092020115CD8FEF809325
:10F5600004018091C00087FD0AC08091050180954B
:10F570008093050188EC90E00E9419F2F2CF10927E
:10F58000050101CD8FEF809307018091C00087FDB9
:10F590000AC08091080180958093080188EC90E072
:10F5A0000E9419F2F2CF10920801EDCC8091C000B8
:10F5B00087FD0AC080910B01809580930B0188EC38
:10F5C00090E00E9419F2F2CF10920B01DCCC64E4BF
:10F5D00072EE05C067E572EE02C068E672EECB011E
:10F5E000A0E0B0E0BC01CD01816040E00E944AF2A1
:10F5F00024CA633049F120F4613099F050F01BC007
:10F60000653089F138F1663009F050C000E010E053
:10F610004AC000E010E04B3109F459C240E050E02C
:10F620006DC900E010E07426C65DDE4F4883CA5203
:10F63000D14062E0F3CF00E010E0842F90E0982FFB
:10F640008827742663E0EACF00E010E0842B74265C
:10F6500064E0E4CF00E010E04E3009F045C27426CB
:10F66000212C312C39C200E010E091012F5F3F4F77
:10F67000E1E0F0E0EC0FFD1FE20DF31D4083742686
:10F680002817390709F027C21C0166E0C7CF00E040
:10F6900010E06330D9F208F421C2653031F308F488
:10F6A00023C2663029F447111FC205C000E010E0F4
:10F6B000673009F0B3CF512C2981233109F4D2C02E
:10F6C00068F5263009F4BCC000F5223009F449C1C0
:10F6D000233009F465C0213009F08FC11A8288E017
:10F6E0008B8381E48C8386E58D8382E58E8389E438
:10F6F0008F8383E5888780E589878FE58A8782E322
:10F700008B87EBE0AE2EB12C7DC1213109F455C0C1
:10F7100008F073C1203109F424C16FC1283109F404
:10F7200068C048F4253109F49DC008F41CC1263195
:10F7300009F419C162C12A3109F44EC008F46EC03F
:10F740002B3109F43DC02D3109F057C19D81903313
:10F7500039F48F818823A9F08130A9F0E3E016C045
:10F76000892F807591F0903519F4E0E0F0E004C045
:10F77000983559F4E3E0F0E089E080935700E49194
:10F7800005C0EEE103C0E7E901C0E0E01A821B8298
:10F790009C831D82EE831F82F7E0AF2EB12C32C115
:10F7A000EA81E059E33028F4F0E0E050FE4F808138
:10F7B00001C080E01A828B833FC055245394D1C08E
:10F7C0008D81882321F0813021F083E003C08EE118
:10F7D00001C087E91A8207C01A82E1E0F0E089E0FF
:10F7E0008093570084918B831C8274E0A72EB12CE8
:10F7F00009C18B81803549F48C81883019F4E2E0AD
:10F80000F0E005C0E0E0F0E002C0E3E0F0E089E015
:10F8100080935700E4911A82EB83E6CF8D81836C4D
:10F8200099E0E1E0F0E0082E90935700E89507B6E4
:10F8300000FCFDCF1A821B8263E0A62EB12CE2C031
:10F840008A81CB80D12CE12CF12C7601DD24CC24D3
:10F85000F82A8D81C82A8C81D82ACC0CDD1CEE1C9C
:10F86000FF1C7FC0AA80B12CBA2CAA248B81A82AA5
:10F87000233109F044C0D701C6018827811530EE35
:10F88000930731E0A307B10508F06BC023E0FC014A
:10F89000A0935B0020935700E89507B600FCFDCFCE
:10F8A0008B85B701A601DE011B9621E01296FD01B2
:10F8B0003197308190E0932B0C01FA0160935B004B
:10F8C00020935700E89511244E5F5F4F6F4F7F4F95
:10F8D00082E0A81AB10811F08C91E8CF85E0F6011A
:10F8E000E0925B0080935700E89507B600FCFDCFDF
:10F8F00081E180935700E8956A017B0132C0A7013E
:10F9000096015695479537952795CA5DDE4F288312
:10F9100039834A835B83C652D1403E013BE0630E8C
:10F92000711C812C912C8A149B0489F0D3016D9158
:10F930003D01CA5DDE4F88819981C652D140880D54
:10F94000991D0E94C8FDBFEF8B1A9B0AECCFA12C1A
:10F95000B12C880C991CAA1CBB1CC80CD91CEA1C15
:10F96000FB1C1A824CC08A8190E0982F88273B812B
:10F97000832B5C01E3E0AE0EB11C1A82243199F4B2
:10F98000DE011396EBBEF601279136912C93129669
:10F99000FD0131973083F2E0CF0ED11CE11CF11C48
:10F9A000029781F728C0FE0133969C01B701A6019A
:10F9B00041BD652E762E872E992462BC4F5F5F4F26
:10F9C0006F4F7F4FF89AA0B5A1932150310981F76D
:10F9D000AC014150510960E070E04F5F5F4F6F4FE5
:10F9E0007F4FC40ED51EE61EF71EA3E0B0E0AC0F9D
:10F9F000BD1FA80FB91F1C9205C080EC8A8332E09E
:10FA0000A32EB12C8BE10E9474F0C65DDE4F88817D
:10FA1000CA52D1400E9474F08B2D0E9474F08A2D3E
:10FA20000E9474F085E1C65DDE4F7880CA52D140F5
:10FA300078267A248EE00E9474F07B249E012F5F4A
:10FA40003F4F4901A20EB31E8A149B0441F0D4011A
:10FA50006D904D01862D0E9474F07624F5CF872D90
:10FA60000E9474F0C65DDE4F2881CA52D1402F5FDC
:10FA7000C65DDE4F2883CA52D14085B1805885B912
:10FA800040E050E0552011F40C947BF489EC91EFA8
:10FA9000A0E0B0E0A160C25EDE4F88839983AA83B4
:10FAA000BB83CE51D14027982F9884E690E00E94E6
:10FAB00019F200008091C0008D7F8093C00081E129
:10FAC00080935700E895EE27FF270994FFCF2BE19D
:10FAD000722E61E0A3CD190165E0A0CD613009F47B
:10FAE000A2CD08F49BCDA9CD60E098CD97FB072E61
:10FAF00016F4009407D077FD09D00E94ACFD07FCF6
:10FB000005D03EF4909581959F4F0895709561952D
:10FB10007F4F0895A1E21A2EAA1BBB1BFD010DC049
:10FB2000AA1FBB1FEE1FFF1FA217B307E407F507AD
:10FB300020F0A21BB30BE40BF50B661F771F881F89
:10FB4000991F1A9469F760957095809590959B011F
:10FB5000AC01BD01CF010895AA1BBB1B51E107C039
:10FB6000AA1FBB1FA617B70710F0A61BB70B881F4D
:10FB7000991F5A95A9F780959095BC01CD010895DC
:10FB8000F999FECF92BD81BDF89A992780B5089565
:10FB9000262FF999FECF1FBA92BD81BD20BD0FB6A9
:10FBA000F894FA9AF99A0FBE01960895F894FFCF47
:04FBB0000F020A0036
:040000031000E00009
:00000001FF
