:020000023000CC
:10E000000D9496F10D94BFF10D94BFF10D94BFF1F5
:10E010000D94BFF10D94BFF10D94BFF10D94BFF1BC
:10E020000D94BFF10D94BFF10D94BFF10D94BFF1AC
:10E030000D94BFF10D94BFF10D94BFF10D94BFF19C
:10E040000D94BFF10D94BFF10D94BFF10D94BFF18C
:10E050000D94BFF10D94BFF10D94BFF10D94BFF17C
:10E060000D94BFF10D94BFF10D94BFF10D94BFF16C
:10E070000D94BFF10D94BFF10D94BFF10D94BFF15C
:10E080000D94BFF10D94BFF10D94BFF10D94BFF14C
:10E090000D94BFF10D94BFF10D94BFF10D94BFF13C
:10E0A0000D94BFF10D94BFF10D94BFF10D94BFF12C
:10E0B0000D94BFF10D94BFF10D94BFF10D94BFF11C
:10E0C0000D94BFF10D94BFF10D94BFF10D94C1F10A
:10E0D000414A4B218093C6008091C00086FFFCCF4F
:10E0E0008091C00080648093C000089541546D65A4
:10E0F0006761323536310073746B353030563220FB
:10E10000626F6F746C6F61646572206279204D4C30
:10E11000532C20666978656420627920414A4B005F
:10E12000426F6F746C6F616465723E00436F6D7017
:10E13000696C6564206F6E203D200043505520546B
:10E14000797065202020203D20005F5F4156525F9E
:10E15000415243485F5F3D2000415652204C696266
:10E1600043205665723D2000474343205665727335
:10E17000696F6E203D2000435055204944202020E7
:10E180002020203D20004C6F77206675736520208D
:10E1900020203D200048696768206675736520204F
:10E1A000203D20004578742066757365202020206E
:10E1B0003D20004C6F636B20667573652020203D09
:10E1C00020004D6179202037203230313900322E45
:10E1D000302E3000342E392E32005623202020419C
:10E1E0004444522020206F7020636F6465202020FB
:10E1F0002020696E737472756374696F6E20616438
:10E200006472202020496E74657272757074006E9D
:10E210006F20766563746F7200726A6D70202000E3
:10E220006A6D7020005768617420706F72743A00D4
:10E23000506F7274206E6F7420737570706F72748B
:10E240006564004D7573742062652061206C65748F
:10E2500074657200200057726974696E67204545C5
:10E260000052656164696E6720454500454520653B
:10E27000727220636E743D00504F525400466C61C0
:10E280007368577269746520203D2000303D5A65DF
:10E29000726F2061646472003F3D43505520737477
:10E2A00061747300403D454550524F4D2074657375
:10E2B0007400423D426C696E6B204C454400453D04
:10E2C00044756D7020454550524F4D00463D447594
:10E2D0006D7020464C41534800483D48656C7000C5
:10E2E0004C3D4C69737420492F4F20506F727473EA
:10E2F00000513D5175697400523D44756D70205256
:10E30000414D00563D73686F7720696E7465727277
:10E3100075707420566563746F727300593D506F49
:10E32000727420626C696E6B002A000011241FBE9B
:10E33000CFEFD1E2DEBFCDBF01E00CBF12E0A0E025
:10E34000B2E0E2ECFAEF03E00BBF02C007900D92DF
:10E35000A430B107D9F722E0A4E0B2E001C01D92D9
:10E36000A231B207E1F70F94D1F30D945FFD01E202
:10E370000EBF0FEF0DBF11241FBE0D94D1F30D94EE
:10E3800000F0CF92DF92EF92FF92CF93FC01448195
:10E390005581668177816A017B01CC24A081B1819E
:10E3A00022813381C11480EED80683E0E806F104AF
:10E3B00008F031C083E0F601E0925B0080935700E3
:10E3C000E89507B600FCFDCFC1E08C911296FD01E7
:10E3D0003197E08190E09E2B0C01FA0160935B0085
:10E3E000C0935700E89511244E5F5F4F6F4F7F4FEA
:10E3F000225031091216130644F385E0F601E0922B
:10E400005B0080935700E89507B600FCFDCF81E1E3
:10E4100080935700E895CF91FF90EF90DF90CF90D9
:10E42000089520E030E02817390749F0E7EEF3E0DF
:10E430003197F1F700C000002F5F3F4FF4CF0895F0
:10E44000CF92DF92EF92FF926B017C01C40ED11C40
:10E45000E11CF11CEBBEF6018791882341F09FEF90
:10E46000C91AD90AE90AF90A0F946AF0F3CFFF90A2
:10E47000EF90DF90CF9008958DE00F946AF08AE0DE
:10E480000D946AF00F9420F20D943CF2CF93DF9339
:10E49000EC018991882319F00F946AF0FACFDF918B
:10E4A000CF910895CF93C82F982F92959F7080E3B6
:10E4B000890F8A3310F087E3890F0F946AF0CF70C9
:10E4C00080E38C0F8A3310F087E38C0FCF910D948B
:10E4D0006AF00F931F93CF93DF93EC018B01853686
:10E4E00091051CF4633071054CF0CE0164E670E0D8
:10E4F0000F94FFFC80E3860F0F946AF0CB30D105B8
:10E500001CF4023011056CF0CE0164E670E00F944B
:10E51000FFFC6AE070E00F94FFFC80E3860F0F942D
:10E520006AF0CE016AE070E00F94FFFC805DDF913D
:10E53000CF911F910F910D946AF08091C00087FFD9
:10E54000FCCF8091C6000895CF93C82F68E772EE84
:10E55000CB01A0E0B0E0BC01CD01836040E00F94AE
:10E5600020F28C2F0F946AF0CF910D943CF26CE85E
:10E5700072EECB01A0E0B0E0BC01CD01836040E0D1
:10E580000F9442F268E972EECB01A0E0B0E0BC016A
:10E59000CD01836040E00F9442F264EA72EECB0159
:10E5A000A0E0B0E0BC01CD01836040E00F9442F2F6
:10E5B00062EB72EECB01A0E0B0E0BC01CD01836064
:10E5C00040E00F9442F26EEB72EECB01A0E0B0E0BF
:10E5D000BC01CD01836040E00F9442F26CEC72EE1E
:10E5E000CB01A0E0B0E0BC01CD01836040E00F941E
:10E5F00042F269ED72EECB01A0E0B0E0BC01CD01CA
:10E60000836040E00F9442F260EE72EECB01A0E036
:10E61000B0E0BC01CD01836040E00F9442F261EFB5
:10E6200072EECB01A0E0B0E0BC01CD01836040E020
:10E630000F9442F268EF72EECB01A0E0B0E0BC01B3
:10E64000CD01836040E00F9442F263E073EECB01B2
:10E65000A0E0B0E0BC01CD01836040E00F9442F245
:10E660006CE173EECB01A0E0B0E0BC01CD018360B2
:10E6700040E00D9442F22F923F924F925F926F9240
:10E680007F928F929F92AF92BF92CF92DF92EF9242
:10E69000FF920F931F93CF93DF93CDB7DEB7A09771
:10E6A0000FB6F894DEBF0FBECDBF282E6A017B01E6
:10E6B000198A00E110E08EE2382E81E0C816D104FC
:10E6C000E806F10418F08E2D0F9452F28D2D0F9460
:10E6D00052F28C2D0F9452F280E20F946AF08DE288
:10E6E0000F946AF080E20F946AF0FE0131965F01A8
:10E6F000260137014601F0E18F0E911C81E02816BA
:10E7000061F0281630F092E029120BC0F20110815E
:10E7100008C06BBEF201179104C0C2010F9449FDFD
:10E72000182F812F0F9452F280E20F946AF080EE3E
:10E73000810FF5018F3510F4108301C03082FFEF97
:10E740004F1A5F0A6F0A7F0A8FEFA81AB80A84145B
:10E750009504A1F690E1C90ED11CE11CF11CCE017B
:10E7600001960F9446F20F943CF2015009F0A5CFA8
:10E77000A0960FB6F894DEBF0FBECDBFDF91CF914C
:10E780001F910F91FF90EF90DF90CF90BF90AF90CF
:10E790009F908F907F906F905F904F903F902F90C1
:10E7A0000895CF93DF93CDB7DEB7C054D1400FB6F5
:10E7B000F894DEBF0FBECDBF01E20EBF0FEF0DBF5D
:10E7C00094B7F894A89514BE8091600088618093F6
:10E7D000600010926000789493FF05C0E0910402FD
:10E7E000F091050219950B9A139A8091C0008260EE
:10E7F0008093C00080E18093C40088E18093C100D1
:10E800000000C12CD12C760143EE842E4DE0942ED5
:10E81000A12CB12C58E0752E00E010E08091C000D2
:10E8200087FF05C0A8014F5F5F4FB1F326C00115F8
:10E830001105C1F722E02A95F1F700C03FEFC31A96
:10E84000D30AE30AF30A91E080E041E2C4164EE401
:10E85000D406E104F10408F490E0092F182FC70151
:10E86000B601A50194010F9413FD672B682B692B4A
:10E87000A9F682B1872582B9D1CF4130510511F077
:10E880000D94CFFCC55DDE4F19821882CB52D1406A
:10E8900000E010E0C65DDE4F1882CA52D140712CF4
:10E8A000212C312CC12CD12C760180E292EE4C012E
:10E8B000A12CB12CD501C401A360CB5CDE4F8883B1
:10E8C0009983AA83BB83C553D14089E192EE4C0161
:10E8D000A12CB12CD501C401A360C75CDE4F888395
:10E8E0009983AA83BB83C953D14080E090E060E064
:10E8F00041305105E1F08824839439E0932E3DE3C3
:10E90000A32EB12C2091C00027FD11C051E0851A23
:10E910009108A108B108B1F7ABBEF4012791369177
:10E920002F3F3F4F41F3EE27FF270994E4CF40915B
:10E93000C600C55DDE4F28813981CB52D1402F5FA3
:10E940003F4FC55DDE4F39832883CB52D1404132E2
:10E9500009F0D7C52A30310508F021C60F5F1F4FD7
:10E960000330110509F01DC625E0A22EB12C09E1E6
:10E9700010E081E20F946AF001501109D1F70F9471
:10E980003CF231E0A31AB10891F710920E021092F6
:10E990000F02109210021092110210920A021092AD
:10E9A0000B0210920C0210920D02109206021092AD
:10E9B0000702109208021092090287EF90EEA0E081
:10E9C000B0E09C01AD014360CA5DDE4F288339830E
:10E9D0004A835B83C652D14040E0CA5DDE4F688106
:10E9E00079818A819B81C652D1400F9442F20F9463
:10E9F000B7F280E291EEA0E0B0E09C01AD0143608F
:10EA0000C35DDE4F288339834A835B83CD52D14077
:10EA10008FE092EEA0E0B0E09C01AD014360CF5CDE
:10EA2000DE4F288339834A835B83C153D14040E062
:10EA3000C35DDE4F688179818A819B81CD52D1404F
:10EA40000F9420F20F949DF2182F803608F01F7556
:10EA5000103230F0812F0F946AF080E20F946AF048
:10EA6000163409F4AEC208F00EC1103409F485C1A1
:10EA700008F002C1103309F464C11F3309F035C531
:10EA800068E972EECB01A0E0B0E0BC01CD0183608B
:10EA900042E00F9442F240E0CA5DDE4F6881798126
:10EAA0008A819B81C652D1400F9442F26CE271EE92
:10EAB000CB01A0E0B0E0BC01CD01836040E00F9449
:10EAC00020F262EC71EECB01A0E0B0E0BC01CD0120
:10EAD000836040E00F9442F26BE371EECB01A0E063
:10EAE000B0E0BC01CD01836040E00F9420F26CEEF9
:10EAF00070EECB01A0E0B0E0BC01CD01836040E04E
:10EB00000F9442F26AE471EECB01A0E0B0E0BC01E8
:10EB1000CD01836040E00F9420F286E30F946AF009
:10EB20000F943CF268E671EECB01A0E0B0E0BC01CE
:10EB3000CD01836040E00F9420F264ED71EECB01D3
:10EB4000A0E0B0E0BC01CD01836040E00F9442F250
:10EB500069E571EECB01A0E0B0E0BC01CD018360BE
:10EB600040E00F9420F26EEC71EECB01A0E0B0E03B
:10EB7000BC01CD01836040E00F9442F267E771EE83
:10EB8000CB01A0E0B0E0BC01CD01836040E00F9478
:10EB900020F28EE10F9452F288E90F9452F282E053
:10EBA0000F9452F20F943CF266E871EECB01A0E0B4
:10EBB000B0E0BC01CD01836040E00F9420F219E089
:10EBC000E0E0F0E01093570084910F9452F20F941C
:10EBD0003CF265E971EECB01A0E0B0E0BC01CD01F3
:10EBE000836040E00F9420F2E3E0F0E010935700E0
:10EBF00084910F9452F20F943CF264EA71EECB01CF
:10EC0000A0E0B0E0BC01CD01836040E00F9420F2B1
:10EC1000E2E0F0E01093570084910F9452F20F94C9
:10EC20003CF263EB71EECB01A0E0B0E0BC01CD01A2
:10EC3000836040E00F9420F2E1E0F0E01093570091
:10EC400084910F9452F20F943CF26DE772EECB0177
:10EC5000A0E0B0E0BC01CD01836040E00F9420F261
:10EC600083E00F9452F280EE0F9452F28CEC0F94EA
:10EC700052F20F943CF2DBCE123409F452C1153437
:10EC800009F46FC132C4113509F4D3C138F5183411
:10EC900009F4C1C11C3409F028C460EE72EECB0146
:10ECA000A0E0B0E0BC01CD01836042E00F9442F2ED
:10ECB00081E40F94A4F282E40F94A4F283E40F940D
:10ECC000A4F284E40F94A4F285E40F94A4F286E401
:10ECD0000F94A4F287E40F94A4F2A9CE163509F498
:10ECE000B8C1193509F455C3123509F0FEC368EFF0
:10ECF00072EECB01A0E0B0E0BC01CD01836042E048
:10ED00000F9442F240910E0250910F026091100256
:10ED10007091110282E00F943BF380910E0290916A
:10ED20000F02A0911002B09111029F5FAF4FBF4F31
:10ED300080930E0290930F02A0931002B0931102E1
:10ED400076CE6CE872EECB01A0E0B0E0BC01CD0164
:10ED5000836042E00F9442F210920A0210920B027A
:10ED600010920C0210920D0210920E0210920F02DD
:10ED7000109210021092110299C064EA72EECB0157
:10ED8000A0E0B0E0BC01CD01836042E00F9442F20C
:10ED900066E572EECB01A0E0B0E0BC01CD0183607E
:10EDA00040E00F9442F20F943CF2812C912C5401DC
:10EDB00084E592EE2C01612C712C33E0632ACA5D4C
:10EDC000DE4F88819981AA81BB81C652D140880DCE
:10EDD000991DAA1DBB1DABBFFC0117911A32D9F0BA
:10EDE000811452E09506A104B104A9F0612FC40179
:10EDF0000F9451FD111106C040E0C301B2010F9400
:10EE000020F203C0812F0F946AF04FEF841A940A06
:10EE1000A40AB40AD4CF0F943CF20F943CF261E6FA
:10EE200072EECB01A0E0B0E0BC01CD01836040E018
:10EE30000F9442F20F943CF2812C912C540100E08B
:10EE400010E084E592EE2C01612C712C83E0682A9D
:10EE5000CA5DDE4F88819981AA81BB81C652D140AB
:10EE6000880D991DAA1DBB1DABBFFC015791CE5D3E
:10EE7000DE4F5883C252D1405A3209F50F943CF20A
:10EE80000F943CF26CE672EECB01A0E0B0E0BC0166
:10EE9000CD01836040E00F9420F261E070E0C80192
:10EEA0000F9469F20F943CF20F943CF21092060218
:10EEB000109207021092080210920902B8CD811434
:10EEC00082E09806A104B104C9F2C4010F9449FD7F
:10EED000282F81110BC040E0C301B201C35CDE4F9B
:10EEE0002883CD53D1400F9420F207C0C35CDE4F7E
:10EEF0002883CD53D1400F946AF0C35CDE4F288144
:10EF0000CD53D140CE5DDE4F3881C252D140231760
:10EF100011F00F5F1F4F4FEF841A940AA40AB40A2E
:10EF200097CF62EB72EECB01A0E0B0E0BC01CD0167
:10EF3000836042E00F9442F20B9A139A8091C000D2
:10EF400087FD0CC0139884E690E00F9411F2139A99
:10EF500084E690E00F9411F2F1CF12B80F949DF275
:10EF600066CD6EEB72EECB01A0E0B0E0BC01CD014E
:10EF7000836042E00F9442F24091060250910702F2
:10EF8000609108027091090281E00F943BF3809137
:10EF9000060290910702A0910802B09109029F5FBA
:10EFA000AF4FBF4F8093060290930702A0930802D1
:10EFB000B093090281159041A105B10508F437CD40
:10EFC00075CF6CEC72EECB01A0E0B0E0BC01CD01DE
:10EFD000836042E00F9442F240910A0250910B028A
:10EFE00060910C0270910D0280E00F943BF38091D0
:10EFF0000A0290910B02A0910C02B0910D029F5F4A
:10F00000AF4FBF4F80930A0290930B02A0930C0264
:10F01000B0930D020CCD69ED72EECB01A0E0B0E033
:10F02000BC01CD01836042E00F9442F20F94B7F22D
:10F03000FECC61EF72EECB01A0E0B0E0BC01CD01EF
:10F04000836042E00F9442F200E010E055245394B4
:10F05000BBC263E073EECB01A0E0B0E0BC01CD0128
:10F06000836042E00F9442F26CEE70EECB01A0E0C0
:10F07000B0E0BC01CD01836040E00F9442F26AED44
:10F0800071EECB01A0E0B0E0BC01CD01836040E0B7
:10F090000F9442F200E010E0412C512C3201A30108
:10F0A00092015695479537952795CE5DDE4F28837B
:10F0B00039834A835B83C252D1400F5F1F4F62E0A6
:10F0C00070E0C8010F9469F280E20F946AF08DE25B
:10F0D0000F946AF080E20F946AF080E00F9452F28D
:10F0E000CE5DDE4F8881C252D1400F9452F280E251
:10F0F0000F946AF08DE30F946AF080E20F946AF047
:10F100006BBEF2019790D301C2010196A11DB11D02
:10F11000ABBFFC018790D301C2010296A11DB11DB6
:10F12000ABBFFC01A790D301C2010396A11DB11D85
:10F13000ABBFFC01B79034E0430E511C611C711C45
:10F14000482D50E060E070E0762F652F542F442763
:10F15000490D511D611D711D882DC35CDE4F488313
:10F16000CD53D140C25CDE4F5883CE53D140C15CF9
:10F17000DE4F6883CF53D140C05CDE4F7883C054EC
:10F18000D1400F9452F280E20F946AF0892D0F94CF
:10F1900052F280E20F946AF08B2D0F9452F280E2CB
:10F1A0000F946AF08A2D0F9452F280E20F946AF065
:10F1B000C35CDE4F4881CD53D140C25CDE4F5881E5
:10F1C000CE53D140C15CDE4F6881CF53D140C05C8B
:10F1D000DE4F7881C054D1404F3F8FEF5807610513
:10F1E000710561F440E0CF5CDE4F688179818A81EE
:10F1F0009B81C153D1400F9420F2C4C0DB01CA01EE
:10F200008827907CAA27BB278115904CA105B105C2
:10F21000C9F54A015B01FFE39F22AA24BB24CE5D0E
:10F22000DE4F88819981AA81BB81C252D140880D6D
:10F23000991DAA1DBB1D9C01AD01220F331F441F48
:10F24000551FCE5DDE4F288339834A835B83C252CC
:10F25000D14040E0C75CDE4F688179818A819B8123
:10F26000C953D1400F9420F2892D0F9452F2882D6A
:10F270000F9452F280E20F946AF08EE30F946AF0DA
:10F2800080E070C04E705E7F662777274C3054490F
:10F290006105710509F076C08B2D90E0A0E0B0E02B
:10F2A000BA2FA92F982F88278A0D911DA11DB11D56
:10F2B000492D417050E060E070E0BA0155274427C5
:10F2C000480F591F6A1F7B1F892D807F90E0A0E0A7
:10F2D000B0E0E1E1880F991FAA1FBB1FEA95D1F7A3
:10F2E000840F951FA61FB71F282D2170822E912CE9
:10F2F000A12CB12CF5E1880C991CAA1CBB1CFA9519
:10F30000D1F7880E991EAA1EBB1EA5019401220FDB
:10F31000331F441F551FCE5DDE4F288339834A8338
:10F320005B83C252D14040E0CB5CDE4F6881798183
:10F330008A819B81C553D1400F9420F28A2D0F946E
:10F3400052F2892D0F9452F2882D0F9452F280E2DE
:10F350000F946AF08EE30F946AF0CC5DDE4F8881E3
:10F36000C452D1400F9452F2CD5DDE4F8881C3521A
:10F37000D1400F9452F2CE5DDE4F8881C252D1400F
:10F380000F9452F20F943CF20333110509F087CE2B
:10F390004ECB6CE173EECB01A0E0B0E0BC01CD013F
:10F3A000836042E00F9442F265E272EECB01A0E08E
:10F3B000B0E0BC01CD01836040E00F9420F20F94D7
:10F3C0009DF2182F1F75812F0F946AF00F943CF255
:10F3D0008FEB810F8A3108F085C0143409F441C0E5
:10F3E00048F41234F1F068F5113409F078C08FEF69
:10F3F00081B90BC0163409F454C008F442C0173464
:10F4000009F06DC08FEF83BB5CC08091C00087FDA9
:10F41000A4CD82B1809582B988EC90E00F9411F26E
:10F42000F4CF8FEF84B98091C00087FD08C085B10B
:10F43000809585B988EC90E00F9411F2F4CF15B85F
:10F440008DCD8FEF87B98091C00087FD08C088B14E
:10F45000809588B988EC90E00F9411F2F4CF18B839
:10F460007DCD8FEF8AB98091C00087FD08C08BB138
:10F4700080958BB988EC90E00F9411F2F4CF1BB813
:10F480006DCD8FEF8DB98091C00087FD08C08EB122
:10F4900080958EB988EC90E00F9411F2F4CF1EB8ED
:10F4A0005DCD8FEF80BB8091C00087FD08C081B328
:10F4B000809581BB88EC90E00F9411F2F4CF11BAE3
:10F4C0004DCD8091C00087FD08C084B3809584BB7A
:10F4D00088EC90E00F9411F2F4CF14BA3FCD60E3C2
:10F4E00072EE05C063E472EE02C064E572EECB0119
:10F4F000A0E0B0E0BC01CD01836040E00F9442F297
:10F5000096CA633049F120F4613099F050F01BC085
:10F51000653089F138F1663009F050C000E010E044
:10F520004AC000E010E04B3109F45AC240E050E01C
:10F53000DFC900E010E07426C65DDE4F4883CA5282
:10F54000D14062E0F3CF00E010E0842F90E0982FEC
:10F550008827742663E0EACF00E010E0842B74264D
:10F5600064E0E4CF00E010E04E3009F046C27426BB
:10F57000212C312C3AC200E010E091012F5F3F4F67
:10F58000E1E0F0E0EC0FFD1FE20DF31D4083742677
:10F590002817390709F028C21C0166E0C7CF00E030
:10F5A00010E06330D9F208F422C2653031F308F478
:10F5B00024C2663029F4471120C205C000E010E0E3
:10F5C000673009F0B3CF512C2981233109F4D2C01F
:10F5D00068F5263009F4BCC000F5223009F449C1B1
:10F5E000233009F465C0213009F08FC11A8288E008
:10F5F0008B8381E48C8386E58D8382E58E8389E429
:10F600008F8383E5888780E589878FE58A8782E312
:10F610008B87EBE0AE2EB12C7DC1213109F455C0B2
:10F6200008F073C1203109F424C16FC1283109F4F5
:10F6300068C048F4253109F49DC008F41CC1263186
:10F6400009F419C162C12A3109F44EC008F46EC030
:10F650002B3109F43DC02D3109F057C19D81903304
:10F6600039F48F818823A9F08130A9F0E2E016C037
:10F67000892F807591F0903519F4E0E0F0E004C036
:10F68000983559F4E3E0F0E089E080935700E49185
:10F6900005C0EEE103C0E8E901C0E0E01A821B8288
:10F6A0009C831D82EE831F82F7E0AF2EB12C32C106
:10F6B000EA81E059E33028F4F0E0E050FE4F808129
:10F6C00001C080E01A828B833FC055245394D1C07F
:10F6D0008D81882321F0813021F082E003C08EE10A
:10F6E00001C088E91A8207C01A82E1E0F0E089E0EF
:10F6F0008093570084918B831C8274E0A72EB12CD9
:10F7000009C18B81803549F48C81883019F4E2E09D
:10F71000F0E005C0E0E0F0E002C0E3E0F0E089E006
:10F7200080935700E4911A82EB83E6CF8D81836C3E
:10F7300099E0E1E0F0E0082E90935700E89507B6D5
:10F7400000FCFDCF1A821B8263E0A62EB12CE2C022
:10F750008A81CB80D12CE12CF12C7601DD24CC24C4
:10F76000F82A8D81C82A8C81D82ACC0CDD1CEE1C8D
:10F77000FF1C7FC0AA80B12CBA2CAA248B81A82A96
:10F78000233109F044C0D701C6018827811530EE26
:10F79000930733E0A307B10508F06BC023E0FC0139
:10F7A000A0935B0020935700E89507B600FCFDCFBF
:10F7B0008B85B701A601DE011B9621E01296FD01A3
:10F7C0003197308190E0932B0C01FA0160935B003C
:10F7D00020935700E89511244E5F5F4F6F4F7F4F86
:10F7E00082E0A81AB10811F08C91E8CF85E0F6010B
:10F7F000E0925B0080935700E89507B600FCFDCFD0
:10F8000081E180935700E8956A017B0132C0A7012E
:10F8100096015695479537952795CA5DDE4F288303
:10F8200039834A835B83C652D1403E013BE0630E7D
:10F83000711C812C912C8A149B0489F0D3016D9149
:10F840003D01CA5DDE4F88819981C652D140880D45
:10F85000991D0F9451FDBFEF8B1A9B0AECCFA12C81
:10F86000B12C880C991CAA1CBB1CC80CD91CEA1C06
:10F87000FB1C1A824CC08A8190E0982F88273B811C
:10F88000832B5C01E3E0AE0EB11C1A82243199F4A3
:10F89000DE011396EBBEF601279136912C9312965A
:10F8A000FD0131973083F2E0CF0ED11CE11CF11C39
:10F8B000029781F728C0FE0133969C01B701A6018B
:10F8C00041BD652E762E872E992462BC4F5F5F4F17
:10F8D0006F4F7F4FF89AA0B5A1932150310981F75E
:10F8E000AC014150510960E070E04F5F5F4F6F4FD6
:10F8F0007F4FC40ED51EE61EF71EA3E0B0E0AC0F8E
:10F90000BD1FA80FB91F1C9205C080EC8A8332E08E
:10F91000A32EB12C8BE10F946AF0C65DDE4F888177
:10F92000CA52D1400F946AF08B2D0F946AF08A2D41
:10F930000F946AF085E1C65DDE4F7880CA52D140EF
:10F9400078267A248EE00F946AF07B249E012F5F44
:10F950003F4F4901A20EB31E8A149B0441F0D4010B
:10F960006D904D01862D0F946AF07624F5CF872D8A
:10F970000F946AF0C65DDE4F2881CA52D1402F5FD6
:10F98000C65DDE4F2883CA52D14092B188E08927F4
:10F9900082B940E050E0552011F40D9475F481ECEB
:10F9A00091EFA0E0B0E0A360C25EDE4F8883998350
:10F9B000AA83BB83CE51D1400B98139884E690E084
:10F9C0000F9411F200008091C0008D7F8093C000E1
:10F9D00081E180935700E895EE27FF270994FFCF38
:10F9E0002BE1722E61E0A2CD190165E09FCD61305F
:10F9F00009F4A1CD08F49ACDA8CD60E097CD97FB8E
:10FA0000072E16F4009407D077FD09D00F9435FD2A
:10FA100007FC05D03EF4909581959F4F0895709511
:10FA200061957F4F0895A1E21A2EAA1BBB1BFD0111
:10FA30000DC0AA1FBB1FEE1FFF1FA217B307E407CD
:10FA4000F50720F0A21BB30BE40BF50B661F771F25
:10FA5000881F991F1A9469F7609570958095909505
:10FA60009B01AC01BD01CF010895AA1BBB1B51E155
:10FA700007C0AA1FBB1FA617B70710F0A61BB70B1E
:10FA8000881F991F5A95A9F780959095BC01CD01C3
:10FA90000895F999FECF92BD81BDF89A992780B556
:10FAA0000895262FF999FECF1FBA92BD81BD20BDC2
:10FAB0000FB6F894FA9AF99A0FBE01960895F89441
:02FAC000FFCF76
:04FAC2000F020A0025
:040000033000E000E9
:00000001FF
