:020000021000EC
:10E000000C946CF10C9493F10C9493F10C9493F1A7
:10E010000C9493F10C9493F10C9493F10C9493F170
:10E020000C9493F10C9493F10C9493F10C9493F160
:10E030000C9493F10C9493F10C9493F10C9493F150
:10E040000C9493F10C9493F10C9493F10C9493F140
:10E050000C9493F10C9493F10C9493F10C9493F130
:10E060000C9493F10C9493F10C9493F10C9493F120
:10E070000C9493F10C9493F10C9493F10C9493F110
:10E080000C9493F10C9493F10C9493F1414A4B212D
:10E090008CB95E9BFECF5E9A089541746D65676191
:10E0A0003132380073746B353030563220626F6F06
:10E0B000746C6F61646572206279204D4C532C2022
:10E0C000666978656420627920414A4B00426F6F2F
:10E0D000746C6F616465723E00436F6D70696C654E
:10E0E00064206F6E203D20004350552054797065A8
:10E0F000202020203D20005F5F4156525F41524367
:10E10000485F5F3D2000415652204C6962432056D3
:10E1100065723D20004743432056657273696F6EF8
:10E12000203D20004350552049442020202020201D
:10E130003D20004C6F772066757365202020203DC0
:10E1400020004869676820667573652020203D209F
:10E15000004578742066757365202020203D2000DE
:10E160004C6F636B20667573652020203D20004D49
:10E170006179202037203230313900322E302E3074
:10E1800000342E392E3200562320202041444452A0
:10E190002020206F7020636F64652020202020697C
:10E1A0006E737472756374696F6E2061646472203B
:10E1B0002020496E74657272757074006E6F2076DF
:10E1C0006563746F7200726A6D702020006A6D70F2
:10E1D00020005768617420706F72743A00506F723B
:10E1E00074206E6F7420737570706F727465640044
:10E1F0004D7573742062652061206C65747465725E
:10E2000000200057726974696E67204545005265A9
:10E210006164696E6720454500454520657272203E
:10E22000636E743D00504F525400466C61736857E2
:10E230007269746520203D2000303D5A65726F2060
:10E2400061646472003F3D43505520737461747380
:10E2500000403D454550524F4D2074657374004257
:10E260003D426C696E6B204C454400453D44756DE4
:10E270007020454550524F4D00463D44756D70200D
:10E28000464C41534800483D48656C70004C3D4C3D
:10E2900069737420492F4F20506F72747300513D81
:10E2A0005175697400523D44756D702052414D00A6
:10E2B000563D73686F7720696E74657272757074FD
:10E2C00020566563746F727300593D506F727420ED
:10E2D000626C696E6B002A0011241FBECFEFD0E183
:10E2E000DEBFCDBF11E0A0E0B1E0EEE0FAEF01E06B
:10E2F0000BBF02C007900D92A430B107D9F721E0FF
:10E30000A4E0B1E001C01D92A231B207E1F70E9482
:10E31000A2F30C9405FD00E10EBF0FEF0DBF112419
:10E320001FBE0C94A2F30C9400F0CF92DF92EF92F8
:10E33000FF92CF93FC0144815581668177816A0108
:10E340007B01CC24A081B18122813381C11480EE74
:10E35000D80681E0E806F10408F033C083E0F60156
:10E36000E0925B0080936800E8958091680080FDF2
:10E37000FCCFC1E08C911296FD013197E08190E0D5
:10E380009E2B0C01FA0160935B00C0936800E89536
:10E3900011244E5F5F4F6F4F7F4F2250310912168D
:10E3A000130644F385E0F601E0925B008093680079
:10E3B000E8958091680080FDFCCF81E18093680042
:10E3C000E895CF91FF90EF90DF90CF90089520E0F7
:10E3D00030E02817390739F0E3E3F7E03197F1F738
:10E3E0002F5F3F4FF6CF0895CF92DF92EF92FF92CB
:10E3F0006B017C01C40ED11CE11CF11CEBBEF601CB
:10E400008791882341F09FEFC91AD90AE90AF90ACE
:10E410000E9448F0F3CFFF90EF90DF90CF900895E7
:10E420008DE00E9448F08AE00C9448F00E94F4F1DC
:10E430000C9410F2CF93DF93EC018991882319F0AB
:10E440000E9448F0FACFDF91CF910895CF93C82F63
:10E45000982F92959F7080E3890F8A3310F087E39D
:10E46000890F0E9448F0CF7080E38C0F8A3310F040
:10E4700087E38C0FCF910C9448F00F931F93CF93A9
:10E48000DF93EC018B01853691051CF46330710537
:10E490004CF0CE0164E670E00E94A6FC80E3860F9B
:10E4A0000E9448F0CB30D1051CF4023011056CF00D
:10E4B000CE0164E670E00E94A6FC6AE070E00E9473
:10E4C000A6FC80E3860F0E9448F0CE016AE070E06F
:10E4D0000E94A6FC805DDF91CF911F910F910C945B
:10E4E00048F05F9BFECF8CB10895CF93C82F65E2B3
:10E4F00072EECB01A0E0B0E0BC01CD01816040E054
:10E500000E94F4F18C2F0E9448F0CF910C9410F2ED
:10E5100069E372EECB01A0E0B0E0BC01CD01816007
:10E5200040E00E9416F265E472EECB01A0E0B0E09C
:10E53000BC01CD01816040E00E9416F261E572EEFF
:10E54000CB01A0E0B0E0BC01CD01816040E00E94C1
:10E5500016F26FE572EECB01A0E0B0E0BC01CD0198
:10E56000816040E00E9416F26BE672EECB01A0E003
:10E57000B0E0BC01CD01816040E00E9416F269E785
:10E5800072EECB01A0E0B0E0BC01CD01816040E0C3
:10E590000E9416F266E872EECB01A0E0B0E0BC018A
:10E5A000CD01816040E00E9416F26DE872EECB0171
:10E5B000A0E0B0E0BC01CD01816040E00E9416F215
:10E5C0006EE972EECB01A0E0B0E0BC01CD0181604C
:10E5D00040E00E9416F265EA72EECB01A0E0B0E0E6
:10E5E000BC01CD01816040E00E9416F260EB72EE4A
:10E5F000CB01A0E0B0E0BC01CD01816040E00E9411
:10E6000016F269EC72EECB01A0E0B0E0BC01CD01E6
:10E61000816040E00C9416F22F923F924F925F92ED
:10E620006F927F928F929F92AF92BF92CF92DF9222
:10E63000EF92FF920F931F93CF93DF93CDB7DEB787
:10E64000A0970FB6F894DEBF0FBECDBF282E6A018B
:10E650007B01198A00E110E08EE2382E81E0C816B5
:10E66000D104E806F10418F08E2D0E9426F28D2DBB
:10E670000E9426F28C2D0E9426F280E20E9448F031
:10E680008DE20E9448F080E20E9448F0FE0131963F
:10E690005F01260137014601F0E18F0E911C81E0F8
:10E6A000281661F0281630F092E029120BC0F20112
:10E6B000108108C06BBEF201179104C0C2010E9414
:10E6C000F0FC182F812F0E9426F280E20E9448F071
:10E6D00080EE810FF5018F3510F4108301C0308278
:10E6E000FFEF4F1A5F0A6F0A7F0A8FEFA81AB80A66
:10E6F00084149504A1F690E1C90ED11CE11CF11C13
:10E70000CE0101960E941AF20E9410F2015009F007
:10E71000A5CFA0960FB6F894DEBF0FBECDBFDF9198
:10E72000CF911F910F91FF90EF90DF90CF90BF900E
:10E73000AF909F908F907F906F905F904F903F90A1
:10E740002F900895CF93DF93CDB7DEB7C054D1405B
:10E750000FB6F894DEBF0FBECDBF00E10EBF0FEFC6
:10E760000DBF8F9A979A599A8FE089B988E18AB933
:10E770000000C12CD12C760149E9842E49E1942E68
:10E78000A12CB12C00E010E05F9B05C0A8014F5FF9
:10E790005F4FC1F325C001151105C1F725E02A958A
:10E7A000F1F73FEFC31AD30AE30AF30A91E080E0DE
:10E7B00041E2C4164EE4D406E104F10408F490E00A
:10E7C000092F182FC701B601A50194010E94BAFCB8
:10E7D000672B682B692BC1F682B3805882BBD4CFDC
:10E7E0004130510511F00C947AFCC55DDE4F198261
:10E7F0001882CB52D14000E010E0C65DDE4F188297
:10E80000CA52D140712C212C312CC12CD12C760133
:10E810008DEC91EE4C01A12CB12CD501C401A1606D
:10E82000CB5CDE4F88839983AA83BB83C553D140D9
:10E8300086EC91EE4C01A12CB12CD501C401A16054
:10E84000C75CDE4F88839983AA83BB83C953D140B9
:10E8500080E090E060E041305105D1F0882483945D
:10E8600030E8932E30E7A32EB12C5F9911C051E010
:10E87000851A9108A108B108C1F7ABBEF401279130
:10E8800036912F3F3F4F51F3EE27FF270994E6CFF4
:10E890004CB1C55DDE4F28813981CB52D1402F5F0D
:10E8A0003F4FC55DDE4F39832883CB52D140413283
:10E8B00009F0D0C52A30310508F01AC60F5F1F4F86
:10E8C0000330110509F016C625E0A22EB12C09E18E
:10E8D00010E081E20E9448F001501109D1F70E9436
:10E8E00010F231E0A31AB10891F710920E011092C4
:10E8F0000F01109210011092110110920A01109252
:10E900000B0110920C0110920D0110920601109251
:10E910000701109208011092090184EA90EEA0E02C
:10E92000B0E09C01AD014160CA5DDE4F28833983B0
:10E930004A835B83C652D14040E0CA5DDE4F6881A6
:10E9400079818A819B81C652D1400E9416F20E9431
:10E9500088F28DEC90EEA0E0B0E09C01AD0141604A
:10E96000C35DDE4F288339834A835B83CD52D14018
:10E970008CEB91EEA0E0B0E09C01AD014160CF5C7A
:10E98000DE4F288339834A835B83C153D14040E003
:10E99000C35DDE4F688179818A819B81CD52D140F0
:10E9A0000E94F4F10E9471F2182F803608F01F7552
:10E9B000103230F0812F0E9448F080E20E9448F02F
:10E9C000163409F4AFC208F011C1103409F488C13B
:10E9D00008F005C1103309F467C11F3309F02EC5D3
:10E9E00065E472EECB01A0E0B0E0BC01CD01816036
:10E9F00042E00E9416F240E0CA5DDE4F68817981F4
:10EA00008A819B81C652D1400E9416F269ED70EE58
:10EA1000CB01A0E0B0E0BC01CD01816040E00E94EC
:10EA2000F4F16FE671EECB01A0E0B0E0BC01CD01E6
:10EA3000816040E00E9416F268EE70EECB01A0E02B
:10EA4000B0E0BC01CD01816040E00E94F4F16AE9D0
:10EA500070EECB01A0E0B0E0BC01CD01816040E0F0
:10EA60000E9416F267EF70EECB01A0E0B0E0BC01AF
:10EA7000CD01816040E00E94F4F161E070E083E349
:10EA800090E00E943DF20E9410F265E171EECB0130
:10EA9000A0E0B0E0BC01CD01816040E00E94F4F153
:10EAA00061E871EECB01A0E0B0E0BC01CD01816076
:10EAB00040E00E9416F266E071EECB01A0E0B0E00B
:10EAC000BC01CD01816040E00E94F4F16BE771EE82
:10EAD000CB01A0E0B0E0BC01CD01816040E00E942C
:10EAE00016F264E271EECB01A0E0B0E0BC01CD0112
:10EAF000816040E00E94F4F18EE10E9426F287E9F5
:10EB00000E9426F282E00E9426F20E9410F263E345
:10EB100071EECB01A0E0B0E0BC01CD01816040E02E
:10EB20000E94F4F119E0E0E0F0E0109368008491B5
:10EB30000E9426F20E9410F262E471EECB01A0E086
:10EB4000B0E0BC01CD01816040E00E94F4F1E3E05F
:10EB5000F0E01093680084910E9426F20E9410F267
:10EB600061E571EECB01A0E0B0E0BC01CD018160B8
:10EB700040E00E94F4F1E2E0F0E01093680084913C
:10EB80000E9426F20E9410F260E671EECB01A0E036
:10EB9000B0E0BC01CD01816040E00E94F4F1E1E011
:10EBA000F0E01093680084910E9426F20E9410F217
:10EBB0006AE272EECB01A0E0B0E0BC01CD01816061
:10EBC00040E00E94F4F181E00E9426F280EE0E9473
:10EBD00026F28CE80E9426F20E9410F2D8CE12345F
:10EBE00009F452C1153409F46DC128C4113509F472
:10EBF000D1C138F5183409F4BFC11C3409F01EC462
:10EC00006DE872EECB01A0E0B0E0BC01CD01816007
:10EC100042E00E9416F281E40E9475F282E40E94B2
:10EC200075F283E40E9475F284E40E9475F285E433
:10EC30000E9475F286E40E9475F287E40E9475F2E4
:10EC4000A6CE163509F4B6C1193509F453C31235E9
:10EC500009F0F4C365EA72EECB01A0E0B0E0BC01BC
:10EC6000CD01816042E00E9416F240910E01509168
:10EC70000F01609110017091110182E00E940CF36C
:10EC800080910E0190910F01A0911001B09111019E
:10EC90009F5FAF4FBF4F80930E0190930F01A093E2
:10ECA0001001B093110173CE69E372EECB01A0E0C5
:10ECB000B0E0BC01CD01816042E00E9416F21092EA
:10ECC0000A0110920B0110920C0110920D0110928A
:10ECD0000E0110920F01109210011092110199C0B3
:10ECE00061E572EECB01A0E0B0E0BC01CD01816036
:10ECF00042E00E9416F263E072EECB01A0E0B0E0C9
:10ED0000BC01CD01816040E00E9416F20E9410F229
:10ED1000812C912C540181E092EE2C01612C712CFC
:10ED2000689460F8CA5DDE4F88819981AA81BB81B1
:10ED3000C652D140880D991DAA1DBB1DABBFFC0159
:10ED400017911A32D9F0811442E09406A104B1045B
:10ED5000A9F0612FC4010E94F8FC111106C040E027
:10ED6000C301B2010E94F4F103C0812F0E9448F058
:10ED70003FEF831A930AA30AB30AD4CF0E9410F27A
:10ED80000E9410F26EE072EECB01A0E0B0E0BC0198
:10ED9000CD01816040E00E9416F20E9410F2812CA9
:10EDA000912C540100E010E081E092EE2C01612CE6
:10EDB000712C689460F8CA5DDE4F88819981AA81C0
:10EDC000BB81C652D140880D991DAA1DBB1DABBF8A
:10EDD000FC012791CE5DDE4F2883C252D1402A32FA
:10EDE00009F50E9410F20E9410F269E172EECB0167
:10EDF000A0E0B0E0BC01CD01816040E00E94F4F1F0
:10EE000061E070E0C8010E943DF20E9410F20E9491
:10EE100010F2109206011092070110920801109250
:10EE20000901B5CD811432E09306A104B104C9F201
:10EE3000C4010E94F0FC282F81110BC040E0C301E7
:10EE4000B201C35CDE4F2883CD53D1400E94F4F160
:10EE500007C0C35CDE4F2883CD53D1400E9448F0E9
:10EE6000C35CDE4F2881CD53D140CE5DDE4F58814B
:10EE7000C252D140251711F00F5F1F4F8FEF881A34
:10EE8000980AA80AB80A97CF6FE572EECB01A0E006
:10EE9000B0E0BC01CD01816042E00E9416F28F9A81
:10EEA000979A5F990CC0979884E690E00E94E7F1EA
:10EEB000979A84E690E00E94E7F1F3CF1BBA0E9494
:10EEC00071F265CD6BE672EECB01A0E0B0E0BC0163
:10EED000CD01816042E00E9416F2409106015091FE
:10EEE0000701609108017091090181E00E940CF313
:10EEF0008091060190910701A0910801B09109014C
:10EF00009F5FAF4FBF4F8093060190930701A0937F
:10EF10000801B093090181159041A105B10508F4DC
:10EF200036CD77CF69E772EECB01A0E0B0E0BC014F
:10EF3000CD01816042E00E9416F240910A01509199
:10EF40000B0160910C0170910D0180E00E940CF3A7
:10EF500080910A0190910B01A0910C01B0910D01DB
:10EF60009F5FAF4FBF4F80930A0190930B01A09317
:10EF70000C01B0930D010BCD66E872EECB01A0E061
:10EF8000B0E0BC01CD01816042E00E9416F20E9417
:10EF900088F2FDCC6EE972EECB01A0E0B0E0BC01DE
:10EFA000CD01816042E00E9416F200E010E055249D
:10EFB0005394B3C260EB72EECB01A0E0B0E0BC01B1
:10EFC000CD01816042E00E9416F26AE970EECB0149
:10EFD000A0E0B0E0BC01CD01816040E00E9416F2EB
:10EFE00067E871EECB01A0E0B0E0BC01CD0181602B
:10EFF00040E00E9416F200E010E0412C512C32015A
:10F00000A30192015695479537952795CE5DDE4F22
:10F01000288339834A835B83C252D1400F5F1F4FDD
:10F0200062E070E0C8010E943DF280E20E9448F078
:10F030008DE20E9448F080E20E9448F080E00E9449
:10F0400026F2CE5DDE4F8881C252D1400E9426F268
:10F0500080E20E9448F08DE30E9448F080E20E9426
:10F0600048F06BBEF2019790D301C2010196A11D39
:10F07000B11DABBFFC018790D301C2010296A11D57
:10F08000B11DABBFFC01A790D301C2010396A11D26
:10F09000B11DABBFFC01B79034E0430E511C611CA5
:10F0A000711C482D50E060E070E0762F652F542FE2
:10F0B0004427490D511D611D711D882DC35CDE4F14
:10F0C0004883CD53D140C25CDE4F5883CE53D140EC
:10F0D000C15CDE4F6883CF53D140C05CDE4F788384
:10F0E000C054D1400E9426F280E20E9448F0892D4F
:10F0F0000E9426F280E20E9448F08B2D0E9426F2A8
:10F1000080E20E9448F08A2D0E9426F280E20E944E
:10F1100048F0C35CDE4F4881CD53D140C25CDE4F26
:10F120005881CE53D140C15CDE4F6881CF53D1406E
:10F13000C05CDE4F7881C054D1404F3F8FEF5807FD
:10F140006105710561F440E0CF5CDE4F6881798133
:10F150008A819B81C153D1400E94F4F1C4C0DB017C
:10F16000CA018827907CAA27BB278115904CA1054E
:10F17000B105C9F54A015B01FFE39F22AA24BB2424
:10F18000CE5DDE4F88819981AA81BB81C252D14078
:10F19000880D991DAA1DBB1D9C01AD01220F331FB7
:10F1A000441F551FCE5DDE4F288339834A835B831E
:10F1B000C252D14040E0C75CDE4F688179818A81CC
:10F1C0009B81C953D1400E94F4F1892D0E9426F2FF
:10F1D000882D0E9426F280E20E9448F08EE30E9471
:10F1E00048F080E070C04E705E7F662777274C3015
:10F1F00054496105710509F076C08B2D90E0A0E0BF
:10F20000B0E0BA2FA92F982F88278A0D911DA11D34
:10F21000B11D492D417050E060E070E0BA01552702
:10F220004427480F591F6A1F7B1F892D807F90E05C
:10F23000A0E0B0E0E1E1880F991FAA1FBB1FEA958B
:10F24000D1F7840F951FA61FB71F282D2170822E7E
:10F25000912CA12CB12CF5E1880C991CAA1CBB1C8B
:10F26000FA95D1F7880E991EAA1EBB1EA50194011E
:10F27000220F331F441F551FCE5DDE4F2883398375
:10F280004A835B83C252D14040E0CB5CDE4F688151
:10F2900079818A819B81C553D1400E94F4F18A2DE6
:10F2A0000E9426F2892D0E9426F2882D0E9426F2C5
:10F2B00080E20E9448F08EE30E9448F0CC5DDE4F71
:10F2C0008881C452D1400E9426F2CD5DDE4F8881F4
:10F2D000C352D1400E9426F2CE5DDE4F8881C252D9
:10F2E000D1400E9426F20E9410F20332110509F06B
:10F2F00087CE4DCB69EC72EECB01A0E0B0E0BC0153
:10F30000CD01816042E00E9416F262ED71EECB0108
:10F31000A0E0B0E0BC01CD01816040E00E94F4F1CA
:10F320000E9471F2182F1F75812F0E9448F00E94D1
:10F3300010F28FEB810F8A3108F07DC01434D9F1BF
:10F3400048F41234E1F048F5113409F071C08FEF40
:10F350008ABB0BC0163409F44AC0D8F1173409F03F
:10F3600067C08FEF8093640054C05F99A7CD8BB3C3
:10F3700080958BBB88EC90E00E94E7F1F6CF8FEF91
:10F3800087BB5F9908C088B3809588BB88EC90E004
:10F390000E94E7F1F6CF18BA92CD8FEF84BB5F9948
:10F3A00008C085B3809585BB88EC90E00E94E7F1AA
:10F3B000F6CF15BA84CD8FEF81BB5F9908C082B3B9
:10F3C000809582BB88EC90E00E94E7F1F6CF12BAFC
:10F3D00076CD8FEF82B95F9908C083B1809583B9EC
:10F3E00088EC90E00E94E7F1F6CF13B868CD8FEF7C
:10F3F000809361005F990AC080916200809580933C
:10F40000620088EC90E00E94E7F1F4CF1092620075
:10F4100056CD5F990AC08091650080958093650004
:10F4200088EC90E00E94E7F1F4CF1092650047CDA0
:10F430006DED71EE05C060EF71EE02C061E072EE3D
:10F44000CB01A0E0B0E0BC01CD01816040E00E94B2
:10F4500016F29DCA633049F120F4613099F050F002
:10F460001BC0653089F138F1663009F050C000E00A
:10F4700010E04AC000E010E04B3109F458C240E00F
:10F4800050E0E9C900E010E07426C65DDE4F488315
:10F49000CA52D14062E0F3CF00E010E0842F90E048
:10F4A000982F8827742663E0EACF00E010E0842BD1
:10F4B000742664E0E4CF00E010E04E3009F044C26E
:10F4C0007426212C312C38C200E010E091012F5F0E
:10F4D0003F4FE1E0F0E0EC0FFD1FE20DF31D408334
:10F4E00074262817390709F026C21C0166E0C7CF29
:10F4F00000E010E06330D9F208F420C2653031F347
:10F5000008F422C2663029F447111EC205C000E08B
:10F5100010E0673009F0B3CF512C2981233109F471
:10F52000D3C068F5263009F4BDC000F5223009F4D7
:10F530004CC1233009F465C0213009F092C11A8210
:10F5400088E08B8381E48C8386E58D8382E58E83DE
:10F5500089E48F8383E5888780E589878FE58A87BB
:10F5600082E38B87EBE0AE2EB12C80C1213109F410
:10F5700055C008F076C1203109F427C172C1283185
:10F5800009F468C048F4253109F49EC008F41FC18D
:10F59000263109F41CC165C12A3109F44EC008F4B2
:10F5A0006EC02B3109F43DC02D3109F05AC19D8147
:10F5B000903339F48F818823A9F08130A9F0E2E0FB
:10F5C00016C0892F807591F0903519F4E0E0F0E0D5
:10F5D00004C0983559F4E3E0F0E089E080936800D6
:10F5E000E49105C0EEE103C0E7E901C0E0E01A8262
:10F5F0001B829C831D82EE831F82F7E0AF2EB12C0D
:10F6000035C1EA81E059E33028F4F0E0E050FF4FE3
:10F61000808101C080E01A828B8340C055245394BE
:10F62000D4C08D81882321F0813021F082E003C095
:10F630008EE101C087E91A8207C01A82E1E0F0E09A
:10F6400089E08093680084918B831C8274E0A72EEC
:10F65000B12C0CC18B81803549F48C81883019F430
:10F66000E2E0F0E005C0E0E0F0E002C0E3E0F0E05E
:10F6700089E080936800E4911A82EB83E6CF8D8164
:10F68000836C99E0E1E0F0E0082E90936800E89543
:10F690008091680080FDFCCF1A821B8263E0A62E59
:10F6A000B12CE4C08A81CB80D12CE12CF12C7601E5
:10F6B000DD24CC24F82A8D81C82A8C81D82ACC0C50
:10F6C000DD1CEE1CFF1C81C0AA80B12CBA2CAA2420
:10F6D0008B81A82A233109F046C0D701C6018827AB
:10F6E000811530EE930731E0A307B10508F06DC036
:10F6F00023E0FC01A0935B0020936800E8958091D3
:10F70000680080FDFCCF8B85B701A601DE011B964A
:10F7100021E01296FD013197308190E0932B0C018E
:10F72000FA0160935B0020936800E89511244E5F16
:10F730005F4F6F4F7F4F82E0A81AB10811F08C9194
:10F74000E8CF85E0F601E0925B0080936800E895E1
:10F750008091680080FDFCCF81E180936800E8958E
:10F760006A017B0132C0A7019601569547953795EE
:10F770002795CA5DDE4F288339834A835B83C6524F
:10F78000D1403E013BE0630E711C812C912C8A1408
:10F790009B0489F0D3016D913D01CA5DDE4F8881E4
:10F7A0009981C652D140880D991D0E94F8FCBFEF87
:10F7B0008B1A9B0AECCFA12CB12C880C991CAA1C8B
:10F7C000BB1CC80CD91CEA1CFB1C1A824CC08A81C9
:10F7D00090E0982F88273B81832B5C01E3E0AE0EFD
:10F7E000B11C1A82243199F4DE011396EBBEF601A6
:10F7F000279136912C931296FD0131973083F2E0D8
:10F80000CF0ED11CE11CF11C029781F728C0FE012C
:10F8100033969C01B701A6014EBB652E762E872E2E
:10F8200099246FBA4F5F5F4F6F4F7F4FE09AADB330
:10F83000A1932150310981F7AC014150510960E099
:10F8400070E04F5F5F4F6F4F7F4FC40ED51EE61EB7
:10F85000F71EA3E0B0E0AC0FBD1FA80FB91F1C92AC
:10F8600005C080EC8A8332E0A32EB12C8BE10E948C
:10F8700048F0C65DDE4F8881CA52D1400E9448F0F0
:10F880008B2D0E9448F08A2D0E9448F085E1C65DCC
:10F89000DE4F7880CA52D14078267A248EE00E94CA
:10F8A00048F07B249E012F5F3F4F4901A20EB31EFB
:10F8B0008A149B0441F0D4016D904D01862D0E9465
:10F8C00048F07624F5CF872D0E9448F0C65DDE4FC4
:10F8D0002881CA52D1402F5FC65DDE4F2883CA52AD
:10F8E000D14082B3805882BB40E050E0552011F4F3
:10F8F0000C9428F485E991EFA0E0B0E0A160C25E2D
:10F90000DE4F88839983AA83BB83CE51D1408F98E1
:10F91000979884E690E00E94E7F10000599881E111
:10F9200080936800E895EE27FF270994FFCF2BE12D
:10F93000722E61E0A4CD190165E0A1CD613009F41A
:10F94000A3CD08F49CCDAACD60E099CD97FB072EFE
:10F9500016F4009407D077FD09D00E94DCFC07FC68
:10F9600005D03EF4909581959F4F089570956195CF
:10F970007F4F0895A1E21A2EAA1BBB1BFD010DC0EB
:10F98000AA1FBB1FEE1FFF1FA217B307E407F5074F
:10F9900020F0A21BB30BE40BF50B661F771F881F2B
:10F9A000991F1A9469F760957095809590959B01C1
:10F9B000AC01BD01CF010895AA1BBB1B51E107C0DB
:10F9C000AA1FBB1FA617B70710F0A61BB70B881FEF
:10F9D000991F5A95A9F780959095BC01CD0108957E
:10F9E000E199FECF9FBB8EBBE09A99278DB3089516
:10F9F000262FE199FECF9FBB8EBB2DBB0FB6F8948F
:0EFA0000E29AE19A0FBE01960895F894FFCFA6
:04FA0E000F020A00D9
:040000031000E00009
:00000001FF
