:101C00000C94830E0C94A80E0C94A80E0C94A80EA1
:101C10000C94A80E0C94A80E0C94A80E0C94A80E6C
:101C20000C94A80E0C94A80E0C94A80E0C94A80E5C
:101C30000C94A80E0C94A80E0C94A80E0C94A80E4C
:101C40000C94A80E0C94A80E0C94A80E0C94A80E3C
:101C50000C94A80E414A4B218CB95E9BFECF5E9A34
:101C60000895EF92FF920F931F93CF93DF93DC01C0
:101C700014968D919C911597AC0140783C911196EA
:101C80002C91119712966D917C9113974115E8E371
:101C90005E0708F031C0A3E0FA01A0935700E89571
:101CA00007B600FCFDCFA32FB22F9C012A1B3B0BD4
:101CB000C1E07D01E20EF31E8C9112968D01015060
:101CC0001109F801D08190E09D2BF7010C01C09320
:101CD0005700E895112462507109161617064CF347
:101CE00085E0FA0180935700E89507B600FCFDCF28
:101CF00081E180935700E895DF91CF911F910F917B
:101D0000FF90EF90089511241FBECFE5D4E0DEBF11
:101D1000CDBF10E0A0E6B0E0E2EBF2E202C0059039
:101D20000D92A436B107D9F720E0A4E6B0E001C0D7
:101D30001D92A636B207E1F70E94B90E0C94571116
:101D400004E00EBF0FE50DBF11241FBE0C94B90EA9
:101D50000C94000E20E030E02817390749F0EFEC32
:101D6000F7E03197F1F700C000002F5F3F4FF4CF4D
:101D70000895CF93DF93CDB7DEB7CF51D1400FB6E3
:101D8000F894DEBF0FBECDBF04E00EBF0FE50DBF60
:101D9000D79ADF9A88E089B988E18AB90000C12C16
:101DA000D12C760157EC852E5BE1952EA12CB12C20
:101DB00000E010E05F9B05C0A8014F5F5F4FC1F3DB
:101DC00026C001151105C1F725E02A95F1F700009D
:101DD0008FEFC81AD80AE80AF80A91E080E0E1E239
:101DE000CE16EEE4DE06E104F10408F490E0092FDB
:101DF000182FC701B601A50194010E942811672B75
:101E0000682B692BB9F68BB380588BBBD3CF41308D
:101E1000510509F0FDC1312CF12CC12CD12C00E071
:101E200010E0A12CB12C20E030E080E041305105E1
:101E3000A9F041E052E16AE770E05F990FC04150BC
:101E4000510961097109C9F7F501459154914F3F55
:101E50005F4F79F3EE27FF270994EBCF9CB18330D6
:101E6000E1F020F4813071F038F010C0853009F1D4
:101E7000C0F0863081F132C09B3109F4E1C140E00D
:101E800050E0D4CFF926392E82E0F9CF292F30E067
:101E9000322F2227F92683E0F2CF292BF92684E07E
:101EA000EECF9E3009F0D0C1F926C12CD12C85E0AF
:101EB000E6CFA6014F5F5F4FE1E0F0E0EC0FFD1FC2
:101EC000EC0DFD1D9083F9264217530709F0BEC1A2
:101ED000690186E0D4CF9F11B7C102C0873079F67F
:101EE0008981833109F4CEC070F5863009F4C1C010
:101EF00008F5823009F47AC0833009F467C0813074
:101F000009F050C11A8288E08B8381E48C8386E5D6
:101F10008D8382E58E8389E48F8383E5888780E5DE
:101F200089878FE58A8782E38B87E12C8BE0882E77
:101F3000912C3EC1813109F456C008F033C1803183
:101F400009F454C02FC1883109F46CC048F48531BC
:101F500009F498C008F4F0C0863109F4EDC022C13C
:101F60008A3109F451C008F471C08B3109F441C0C1
:101F70008D3109F017C19D81903339F48F81882309
:101F8000A9F08130A9F083E016C0892F807591F007
:101F9000903519F489E0F50105C0983559F4E3E06E
:101FA000F0E089E080935700849105C08EE103C082
:101FB00084E901C080E01A821B829C831D828E838B
:101FC0001F82E12C97E0892E912CF2C0EA81E05922
:101FD000E33028F4F0E0E05AFF4F808101C080E058
:101FE0001A828B8341C0EE24E39401C0E12C1A8253
:101FF000DCC08D81882321F0813021F083E024C072
:102000008EE122C084E920C01A82E1E0F0E089E09C
:102010008093570084918B831C82E12CB4E08B2E3B
:10202000912CC6C08B81803549F48C81883019F49D
:10203000E2E0F0E005C089E0F50103C0E3E0F0E094
:1020400089E08093570084911A82E5CF8D81836C5B
:1020500099E0E1E0F0E0082E90935700E89507B68C
:1020600000FCFDCF1A821B82E12CA3E08A2E912C6A
:102070009FC00C8110E0102F00278D81082B000FCE
:10208000111F58C0EA80F12CFE2CEE249B81E92A16
:10209000833109F035C0F801E078E11528E3F20753
:1020A00008F048C083E080935700E89507B600FC2D
:1020B000FDCF8B859801DE011B9641E01296FD0154
:1020C0003197508190E0952BF9010C014093570016
:1020D000E89511242E5F3F4FF2E0EF1AF10811F05E
:1020E0008C91ECCF85E0F80180935700E89507B616
:1020F00000FCFDCF81E180935700E89589011AC06B
:10210000280156944794CE010B964C0132016E0C77
:102110007F1C4614570451F0F40161914F01C20134
:102120000E944A11FFEF4F1A5F0AF3CFEE0CFF1C1B
:102130000E0D1F1D1A8238C02A8130E0322F22274F
:102140009B81292B490193E0890E911C1A828431CD
:1021500081F4C801DE011396FC01459154914C9322
:102160001296FD0131975083029622503109A1F752
:1021700015C0FE013396C801820F931F0EBB1FBB13
:102180000F5F1F4FE09A4DB3419308171907B1F73E
:10219000A3E0B0E0AC0FBD1FA20FB31F1C928C01D7
:1021A000E12C06C080EC8A83E12C92E0892E912CF0
:1021B0008BE10E942C0E832D0E942C0E892D0E94F3
:1021C0002C0E882D0E942C0E85E1F32CF826F82485
:1021D0008EE00E942C0EF924FE0131963F018E0EF6
:1021E0009F1E6814790441F0F30151903F01852D41
:1021F0000E942C0EF524F5CF8F2D0E942C0E3394C7
:102200008BB380588BBB40E050E0EE2009F40BCE3E
:1022100081E39EE0C25EDE4F99838883CE51D14038
:10222000D798DF9884E690E00E94AA0E00005998A3
:1022300081E180935700E895EE27FF270994FFCFAF
:102240008BE1F82E81E01BCE80E019CE6A0117CE1B
:10225000A1E21A2EAA1BBB1BFD010DC0AA1FBB1FAA
:10226000EE1FFF1FA217B307E407F50720F0A21B1C
:10227000B30BE40BF50B661F771F881F991F1A9489
:1022800069F760957095809590959B01AC01BD01B3
:10229000CF010895262FE199FECF9FBB8EBB2DBBAA
:1022A0000FB6F894E29AE19A0FBE01960895F89459
:0222B000FFCF5E
:0422B2000F020A000D
:0400000300001C00DD
:00000001FF
