:020000023000CC
:10E000000D94A2F10D94CBF10D94CBF10D94CBF1C5
:10E010000D94CBF10D94CBF10D94CBF10D94CBF18C
:10E020000D94CBF10D94CBF10D94CBF10D94CBF17C
:10E030000D94CBF10D94CBF10D94CBF10D94CBF16C
:10E040000D94CBF10D94CBF10D94CBF10D94CBF15C
:10E050000D94CBF10D94CBF10D94CBF10D94CBF14C
:10E060000D94CBF10D94CBF10D94CBF10D94CBF13C
:10E070000D94CBF10D94CBF10D94CBF10D94CBF12C
:10E080000D94CBF10D94CBF10D94CBF10D94CBF11C
:10E090000D94CBF10D94CBF10D94CBF10D94CBF10C
:10E0A0000D94CBF10D94CBF10D94CBF10D94CBF1FC
:10E0B0000D94CBF10D94CBF10D94CBF10D94CBF1EC
:10E0C0000D94CBF10D94CBF10D94CBF10D94CBF1DC
:10E0D0000D94CBF10D94CBF10D94CBF10D94CBF1CC
:10E0E0000D94CBF10D94CDF1414A4B218093C600A4
:10E0F0008091C00086FFFCCF8091C0008064809337
:10E10000C000089541546D65676132353630007343
:10E11000746B353030563220626F6F746C6F61648F
:10E120006572206279204D4C532C206669786564B5
:10E1300020627920414A4B00426F6F746C6F6164BA
:10E1400065723E00436F6D70696C6564206F6E2070
:10E150003D20004350552054797065202020203DFB
:10E1600020005F5F4156525F415243485F5F3D2050
:10E1700000415652204C696243205665723D200092
:10E180004743432056657273696F6E203D200043FC
:10E1900050552049442020202020203D20004C6F55
:10E1A000772066757365202020203D200048696730
:10E1B0006820667573652020203D20004578742016
:10E1C00066757365202020203D20004C6F636B2016
:10E1D000667573652020203D20004D617920203731
:10E1E000203230313900322E302E3000342E392E8C
:10E1F00032005623202020414444522020206F70BA
:10E2000020636F64652020202020696E737472750E
:10E210006374696F6E2061646472202020496E749B
:10E22000657272757074006E6F20766563746F72BC
:10E2300000726A6D702020006A6D7020005768615E
:10E240007420706F72743A00506F7274206E6F7425
:10E2500020737570706F72746564004D75737420EF
:10E2600062652061206C65747465720020005772CD
:10E270006974696E672045450052656164696E671F
:10E280002045450045452065727220636E743D004F
:10E29000504F525400466C61736857726974652020
:10E2A000203D2000303D5A65726F20616464720029
:10E2B0003F3D43505520737461747300403D4545A4
:10E2C00050524F4D207465737400423D426C696E2C
:10E2D0006B204C454400453D44756D7020454550CC
:10E2E000524F4D00463D44756D7020464C41534899
:10E2F00000483D48656C70004C3D4C697374204982
:10E300002F4F20506F72747300513D517569740026
:10E31000523D44756D702052414D00563D73686FFB
:10E320007720696E746572727570742056656374B7
:10E330006F727300593D506F727420626C696E6B1E
:10E34000002A000011241FBECFEFD1E2DEBFCDBFF7
:10E3500001E00CBF12E0A0E0B2E0E2EBFBEF03E073
:10E360000BBF02C007900D92A430B107D9F722E08D
:10E37000A4E0B2E001C01D92A231B207E1F70F9410
:10E38000DDF30D94D7FD01E20EBF0FEF0DBF112499
:10E390001FBE0D94DDF30D9400F0CF92DF92EF924B
:10E3A000FF92CF93FC0144815581668177816A0198
:10E3B0007B01CC24A081B18122813381C11480EE04
:10E3C000D80683E0E806F10408F031C083E0F601E6
:10E3D000E0925B0080935700E89507B600FCFDCF04
:10E3E000C1E08C911296FD013197E08190E09E2B67
:10E3F0000C01FA0160935B00C0935700E89511246B
:10E400004E5F5F4F6F4F7F4F225031091216130638
:10E4100044F385E0F601E0925B0080935700E895B5
:10E4200007B600FCFDCF81E180935700E895CF91BE
:10E43000FF90EF90DF90CF90089520E030E0281714
:10E44000390749F0EFECF7E03197F1F700C0000031
:10E450002F5F3F4FF4CF0895CF92DF92EF92FF925C
:10E460006B017C01C40ED11CE11CF11CEBBEF6015A
:10E470008791882341F09FEFC91AD90AE90AF90A5E
:10E480000F9476F0F3CFFF90EF90DF90CF90089548
:10E490008DE00F9476F08AE00D9476F00F942CF2D4
:10E4A0000D9448F2CF93DF93EC018991882319F002
:10E4B0000F9476F0FACFDF91CF910895CF93C82FC4
:10E4C000982F92959F7080E3890F8A3310F087E32D
:10E4D000890F0F9476F0CF7080E38C0F8A3310F0A1
:10E4E00087E38C0FCF910D9476F00F931F93CF930A
:10E4F000DF93EC018B01853691051CF463307105C7
:10E500004CF0CE0164E670E00F9477FD80E3860F57
:10E510000F9476F0CB30D1051CF4023011056CF06D
:10E52000CE0164E670E00F9477FD6AE070E00F942E
:10E5300077FD80E3860F0F9476F0CE016AE070E0FD
:10E540000F9477FD805DDF91CF911F910F910D9416
:10E5500076F08091C00087FFFCCF8091C6000895BF
:10E56000CF93C82F60E972EECB01A0E0B0E0BC0110
:10E57000CD01836040E00F942CF28C2F0F9476F045
:10E58000CF910D9448F264EA72EECB01A0E0B0E0C6
:10E59000BC01CD01836040E00F944EF260EB72EE5F
:10E5A000CB01A0E0B0E0BC01CD01836040E00F945E
:10E5B0004EF26CEB72EECB01A0E0B0E0BC01CD01FD
:10E5C000836040E00F944EF26AEC72EECB01A0E063
:10E5D000B0E0BC01CD01836040E00F944EF266EDE7
:10E5E00072EECB01A0E0B0E0BC01CD01836040E061
:10E5F0000F944EF264EE72EECB01A0E0B0E0BC01ED
:10E60000CD01836040E00F944EF261EF72EECB01DA
:10E61000A0E0B0E0BC01CD01836040E00F944EF279
:10E6200068EF72EECB01A0E0B0E0BC01CD018360E9
:10E6300040E00F944EF269E073EECB01A0E0B0E051
:10E64000BC01CD01836040E00F944EF260E173EEB7
:10E65000CB01A0E0B0E0BC01CD01836040E00F94AD
:10E660004EF26BE173EECB01A0E0B0E0BC01CD0156
:10E67000836040E00F944EF264E373EECB01A0E0C0
:10E68000B0E0BC01CD01836040E00D944EF22F92CA
:10E690003F924F925F926F927F928F929F92AF9232
:10E6A000BF92CF92DF92EF92FF920F931F93CF937F
:10E6B000DF93CDB7DEB7A0970FB6F894DEBF0FBEDD
:10E6C000CDBF282E6A017B01198A00E110E08EE29D
:10E6D000382E81E0C816D104E806F10418F08E2D1A
:10E6E0000F945EF28D2D0F945EF28C2D0F945EF2DE
:10E6F00080E20F9476F08DE20F9476F080E20F9432
:10E7000076F0FE0131965F01260137014601F0E106
:10E710008F0E911C81E0281661F0281630F092E0EF
:10E7200029120BC0F201108108C06BBEF2011791D3
:10E7300004C0C2010F94C1FD182F812F0F945EF207
:10E7400080E20F9476F080EE810FF5018F3510F4A2
:10E75000108301C03082FFEF4F1A5F0A6F0A7F0AF1
:10E760008FEFA81AB80A84149504A1F690E1C90E97
:10E77000D11CE11CF11CCE0101960F9452F20F94B2
:10E7800048F2015009F0A5CFA0960FB6F894DEBF6D
:10E790000FBECDBFDF91CF911F910F91FF90EF90F2
:10E7A000DF90CF90BF90AF909F908F907F906F90B1
:10E7B0005F904F903F902F900895CF93DF93CDB708
:10E7C000DEB7C054D1400FB6F894DEBF0FBECDBF48
:10E7D00001E20EBF0FEF0DBF94B7F894A89514BED9
:10E7E000809160008861809360001092600078944E
:10E7F00093FF05C0E0910402F09105021995279A54
:10E800002F9A8091C00082608093C00080E1809345
:10E81000C40088E18093C1000000C12CD12C760196
:10E8200047EC842E4BE1942EA12CB12C00E010E09B
:10E830008091C00087FF05C0A8014F5F5F4FB1F313
:10E8400026C001151105C1F725E02A95F1F7000052
:10E850003FEFC31AD30AE30AF30A91E080E041E2F2
:10E86000C4164EE4D406E104F10408F490E0092F44
:10E87000182FC701B601A50194010F948BFD672BDA
:10E88000682B692BA9F685B1805885B9D1CF413065
:10E89000510511F00D9447FDC55DDE4F19821882B8
:10E8A000CB52D14000E010E0C65DDE4F1882CA5264
:10E8B000D140712C212C312CC12CD12C760188E334
:10E8C00092EE4C01A12CB12CD501C401A360CB5C0C
:10E8D000DE4F88839983AA83BB83C553D14081E3EC
:10E8E00092EE4C01A12CB12CD501C401A360C75CF0
:10E8F000DE4F88839983AA83BB83C953D14080E0CC
:10E9000090E060E041305105E1F08824839432E1E9
:10E91000932E3AE7A32EB12C2091C00027FD11C001
:10E9200051E0851A9108A108B108B1F7ABBEF40116
:10E93000279136912F3F3F4F41F3EE27FF27099450
:10E94000E4CF4091C600C55DDE4F28813981CB52AE
:10E95000D1402F5F3F4FC55DDE4F39832883CB52B7
:10E96000D140413209F046C62A30310508F090C640
:10E970000F5F1F4F0330110509F08CC625E0A22E52
:10E98000B12C09E110E081E20F9476F001501109F9
:10E99000D1F70F9448F231E0A31AB10891F7109221
:10E9A0000E0210920F021092100210921102109299
:10E9B0000A0210920B0210920C0210920D02109299
:10E9C00006021092070210920802109209028FE0CC
:10E9D00091EEA0E0B0E09C01AD014360CA5DDE4F66
:10E9E000288339834A835B83C652D14040E0CA5DA5
:10E9F000DE4F688179818A819B81C652D1400F9414
:10EA00004EF20F94C3F288E391EEA0E0B0E09C01D7
:10EA1000AD014360C35DDE4F288339834A835B8346
:10EA2000CD52D14087E292EEA0E0B0E09C01AD0172
:10EA30004360CF5CDE4F288339834A835B83C153B5
:10EA4000D14040E0C35DDE4F688179818A819B813E
:10EA5000CD52D1400F942CF20F94A9F2182F80368A
:10EA600008F01F75103230F0812F0F9476F080E29D
:10EA70000F9476F0163409F4BAC208F00EC11034BF
:10EA800009F491C108F002C1103309F470C11F33B9
:10EA900009F0A4C560EB72EECB01A0E0B0E0BC01D0
:10EAA000CD01836042E00F944EF240E0CA5DDE4F3C
:10EAB000688179818A819B81C652D1400F944EF240
:10EAC00064E471EECB01A0E0B0E0BC01CD01836055
:10EAD00040E00F942CF26AED71EECB01A0E0B0E0C3
:10EAE000BC01CD01836040E00F944EF263E571EE0E
:10EAF000CB01A0E0B0E0BC01CD01836040E00F9409
:10EB00002CF264E071EECB01A0E0B0E0BC01CD01DD
:10EB1000836040E00F944EF262E671EECB01A0E01C
:10EB2000B0E0BC01CD01836040E00F942CF286E39D
:10EB30000F9476F00F9448F260E871EECB01A0E0FC
:10EB4000B0E0BC01CD01836040E00F942CF26CEE8C
:10EB500071EECB01A0E0B0E0BC01CD01836040E0EC
:10EB60000F944EF261E771EECB01A0E0B0E0BC0182
:10EB7000CD01836040E00F942CF266EE71EECB0184
:10EB8000A0E0B0E0BC01CD01836040E00F944EF204
:10EB90006FE871EECB01A0E0B0E0BC01CD01836075
:10EBA00040E00F942CF28EE10F945EF288E90F940E
:10EBB0005EF281E00F945EF20F9448F26EE971EE1E
:10EBC000CB01A0E0B0E0BC01CD01836040E00F9438
:10EBD0002CF219E0E0E0F0E01093570084910F94DC
:10EBE0005EF20F9448F26DEA71EECB01A0E0B0E066
:10EBF000BC01CD01836040E00F942CF2E3E0F0E033
:10EC00001093570084910F945EF20F9448F26CEBCE
:10EC100071EECB01A0E0B0E0BC01CD01836040E02B
:10EC20000F942CF2E2E0F0E01093570084910F94DF
:10EC30005EF20F9448F26BEC71EECB01A0E0B0E015
:10EC4000BC01CD01836040E00F942CF2E1E0F0E0E4
:10EC50001093570084910F945EF20F9448F265E987
:10EC600072EECB01A0E0B0E0BC01CD01836040E0DA
:10EC70000F942CF283E00F945EF280EE0F945EF21C
:10EC800084EE0F945EF20F9448F2DBCE123409F456
:10EC90005EC1153409F47BC1A1C4113509F4DFC18B
:10ECA00098F5183409F4CDC11C3409F097C468EF05
:10ECB00072EECB01A0E0B0E0BC01CD01836042E088
:10ECC0000F944EF281E40F94B0F282E40F94B0F20C
:10ECD00083E40F94B0F284E40F94B0F285E40F94CF
:10ECE000B0F286E40F94B0F287E40F94B0F288E4B7
:10ECF0000F94B0F28AE40F94B0F28BE40F94B0F268
:10ED00008CE40F94B0F29DCE163509F4B8C11935D4
:10ED100009F455C3123509F061C460E173EECB010B
:10ED2000A0E0B0E0BC01CD01836042E00F944EF260
:10ED300040910E0250910F026091100270911102E9
:10ED400082E00F9447F380910E0290910F02A09100
:10ED50001002B09111029F5FAF4FBF4F80930E0220
:10ED600090930F02A0931002B09311026ACE64EA4E
:10ED700072EECB01A0E0B0E0BC01CD01836042E0C7
:10ED80000F944EF210920A0210920B0210920C0293
:10ED900010920D0210920E0210920F0210921002A9
:10EDA0001092110299C06CEB72EECB01A0E0B0E0C2
:10EDB000BC01CD01836042E00F944EF26EE672EE2C
:10EDC000CB01A0E0B0E0BC01CD01836040E00F9436
:10EDD0004EF20F9448F2812C912C54018CE692EE65
:10EDE0002C01612C712C33E0632ACA5DDE4F8881CF
:10EDF0009981AA81BB81C652D140880D991DAA1D57
:10EE0000BB1DABBFFC0117911A32D9F0811452E03F
:10EE10009506A104B104A9F0612FC4010F94C9FDA6
:10EE2000111106C040E0C301B2010F942CF203C0DF
:10EE3000812F0F9476F04FEF841A940AA40AB40A33
:10EE4000D4CF0F9448F20F9448F269E772EECB01E9
:10EE5000A0E0B0E0BC01CD01836040E00F944EF231
:10EE60000F9448F2812C912C540100E010E08CE6C4
:10EE700092EE2C01612C712C83E0682ACA5DDE4F72
:10EE800088819981AA81BB81C652D140880D991D84
:10EE9000AA1DBB1DABBFFC015791CE5DDE4F588351
:10EEA000C252D1405A3209F50F9448F20F9448F2F9
:10EEB00064E872EECB01A0E0B0E0BC01CD0183605C
:10EEC00040E00F942CF261E070E0C8010F9475F2FD
:10EED0000F9448F20F9448F2109206021092070223
:10EEE0001092080210920902ACCD811482E09806BB
:10EEF000A104B104C9F2C4010F94C1FD282F8111EE
:10EF00000BC040E0C301B201C35CDE4F2883CD5388
:10EF1000D1400F942CF207C0C35CDE4F2883CD5341
:10EF2000D1400F9476F0C35CDE4F2881CD53D140A1
:10EF3000CE5DDE4F3881C252D140231711F00F5FF2
:10EF40001F4F4FEF841A940AA40AB40A97CF6AECB1
:10EF500072EECB01A0E0B0E0BC01CD01836042E0E5
:10EF60000F944EF2279A2F9A8091C00087FD0CC013
:10EF70002F9884E690E00F941DF22F9A84E690E09B
:10EF80000F941DF2F1CF12B80F94A9F25ACD66ED8D
:10EF900072EECB01A0E0B0E0BC01CD01836042E0A5
:10EFA0000F944EF2409106025091070260910802C0
:10EFB0007091090281E00F9447F3809106029091CD
:10EFC0000702A0910802B09109029F5FAF4FBF4FA7
:10EFD0008093060290930702A0930802B09309025F
:10EFE00081159041A105B10508F42BCD75CF64EED4
:10EFF00072EECB01A0E0B0E0BC01CD01836042E045
:10F000000F944EF240910A0250910B0260910C0253
:10F0100070910D0280E00F9447F380910A02909165
:10F020000B02A0910C02B0910D029F5FAF4FBF4F3A
:10F0300080930A0290930B02A0930C02B0930D02EE
:10F0400000CD61EF72EECB01A0E0B0E0BC01CD01DC
:10F05000836042E00F944EF20F94C3F2F2CC69E069
:10F0600073EECB01A0E0B0E0BC01CD01836042E0D3
:10F070000F944EF200E010E0552453941EC36BE150
:10F0800073EECB01A0E0B0E0BC01CD01836042E0B3
:10F090000F944EF264E071EECB01A0E0B0E0BC0151
:10F0A000CD01836040E00F944EF262EF71EECB0130
:10F0B000A0E0B0E0BC01CD01836040E00F944EF2CF
:10F0C00000E010E0412C512C3201A3019201569531
:10F0D000479537952795CE5DDE4F288339834A8340
:10F0E0005B83C252D1400F5F1F4F62E070E0C801E6
:10F0F0000F9475F280E20F9476F08DE20F9476F023
:10F1000080E20F9476F080E00F945EF2CE5DDE4FE9
:10F110008881C252D1400F945EF280E20F9476F063
:10F120008DE30F9476F080E20F9476F06BBEF201DF
:10F130009790D301C2010196A11DB11DABBFFC0187
:10F140008790D301C2010296A11DB11DABBFFC0186
:10F15000A790D301C2010396A11DB11DABBFFC0155
:10F16000B79034E0430E511C611C711C482D50E0D7
:10F1700060E070E0762F652F542F4427490D511D14
:10F18000611D711D882DC35CDE4F4883CD53D14076
:10F19000C25CDE4F5883CE53D140C15CDE4F6883E2
:10F1A000CF53D140C05CDE4F7883C054D1400F9420
:10F1B0005EF280E20F9476F0892D0F945EF280E289
:10F1C0000F9476F08B2D0F945EF280E20F9476F020
:10F1D0008A2D0F945EF280E20F9476F0C35CDE4FCE
:10F1E0004881CD53D140C25CDE4F5881CE53D140CF
:10F1F000C15CDE4F6881CF53D140C05CDE4F788167
:10F20000C054D1404F3F8FEF58076105710561F43D
:10F2100040E0CF5CDE4F688179818A819B81C15358
:10F22000D1400F942CF2C4C0DB01CA018827907C26
:10F23000AA27BB278115904CA105B105C9F54A0144
:10F240005B01FFE39F22AA24BB24CE5DDE4F8881B1
:10F250009981AA81BB81C252D140880D991DAA1DF6
:10F26000BB1D9C01AD01220F331F441F551FCE5DF6
:10F27000DE4F288339834A835B83C252D14040E00A
:10F28000C75CDE4F688179818A819B81C953D140F7
:10F290000F942CF2892D0F945EF2882D0F945EF25C
:10F2A00080E20F9476F08EE30F9476F080E070C0E9
:10F2B0004E705E7F662777274C3054496105710593
:10F2C00009F076C08B2D90E0A0E0B0E0BA2FA92F16
:10F2D000982F88278A0D911DA11DB11D492D4170C0
:10F2E00050E060E070E0BA0155274427480F591FED
:10F2F0006A1F7B1F892D807F90E0A0E0B0E0E1E1F4
:10F30000880F991FAA1FBB1FEA95D1F7840F951F7D
:10F31000A61FB71F282D2170822E912CA12CB12C55
:10F32000F5E1880C991CAA1CBB1CFA95D1F7880E34
:10F33000991EAA1EBB1EA5019401220F331F441F54
:10F34000551FCE5DDE4F288339834A835B83C252CB
:10F35000D14040E0CB5CDE4F688179818A819B811E
:10F36000C553D1400F942CF28A2D0F945EF2892D53
:10F370000F945EF2882D0F945EF280E20F9476F087
:10F380008EE30F9476F0CC5DDE4F8881C452D1407D
:10F390000F945EF2CD5DDE4F8881C352D1400F9451
:10F3A0005EF2CE5DDE4F8881C252D1400F945EF294
:10F3B0000F9448F20933110509F087CE42CB64E37C
:10F3C00073EECB01A0E0B0E0BC01CD01836042E070
:10F3D0000F944EF26DE372EECB01A0E0B0E0BC0101
:10F3E000CD01836040E00F942CF20F94A9F2182F06
:10F3F0001F75812F0F9476F00F9448F28FEB810FD9
:10F400008A3108F0E8C0163409F478C0A8F413343F
:10F4100009F446C040F4113439F1123409F0D8C06F
:10F420008FEF84B92FC0143409F44AC0153409F0A1
:10F43000CFC08FEF8DB954C01A3409F490C050F486
:10F44000173409F46BC0183409F0C2C08FEF8093F1
:10F45000010174C01B3409F496C01C3409F0B8C013
:10F460008FEF80930A01A3C08FEF81B98091C00014
:10F4700087FD89CD82B1809582B988EC90E00F94A8
:10F480001DF2F4CF8091C00087FD08C085B1809542
:10F4900085B988EC90E00F941DF2F4CF15B874CDC7
:10F4A0008FEF87B98091C00087FD08C088B1809533
:10F4B00088B988EC90E00F941DF2F4CF18B864CDB1
:10F4C0008FEF8AB98091C00087FD08C08BB180950D
:10F4D0008BB988EC90E00F941DF2F4CF1BB854CD9B
:10F4E0008091C00087FD08C08EB180958EB988ECF0
:10F4F00090E00F941DF2F4CF1EB846CD8FEF80BB85
:10F500008091C00087FD08C081B3809581BB88ECE5
:10F5100090E00F941DF2F4CF11BA36CD8FEF83BB7C
:10F520008091C00087FD08C084B3809584BB88ECBF
:10F5300090E00F941DF2F4CF14BA26CD8091C00054
:10F5400087FD0AC08091020180958093020188ECBA
:10F5500090E00F941DF2F2CF1092020115CD8FEFC3
:10F56000809304018091C00087FD0AC0809105014D
:10F5700080958093050188EC90E00F941DF2F2CF06
:10F580001092050101CD8FEF809307018091C0009B
:10F5900087FD0AC08091080180958093080188EC5E
:10F5A00090E00F941DF2F2CF10920801EDCC809103
:10F5B000C00087FD0AC080910B01809580930B01EC
:10F5C00088EC90E00F941DF2F2CF10920B01DCCC8E
:10F5D00068E472EE05C06BE572EE02C06CE672EE96
:10F5E000CB01A0E0B0E0BC01CD01836040E00F940E
:10F5F0004EF227CA633049F120F4613099F050F09F
:10F600001BC0653089F138F1663009F050C000E068
:10F6100010E04AC000E010E04B3109F459C240E06C
:10F6200050E070C900E010E07426C65DDE4F4883EC
:10F63000CA52D14062E0F3CF00E010E0842F90E0A6
:10F64000982F8827742663E0EACF00E010E0842B2F
:10F65000742664E0E4CF00E010E04E3009F045C2CB
:10F660007426212C312C39C200E010E091012F5F6B
:10F670003F4FE1E0F0E0EC0FFD1FE20DF31D408392
:10F6800074262817390709F027C21C0166E0C7CF86
:10F6900000E010E06330D9F208F421C2653031F3A4
:10F6A00008F423C2663029F447111FC205C000E0E8
:10F6B00010E0673009F0B3CF512C2981233109F4D0
:10F6C000D2C068F5263009F4BCC000F5223009F438
:10F6D00049C1233009F465C0213009F08FC11A8275
:10F6E00088E08B8381E48C8386E58D8382E58E833D
:10F6F00089E48F8383E5888780E589878FE58A871A
:10F7000082E38B87EBE0AE2EB12C7DC1213109F471
:10F7100055C008F073C1203109F424C16FC12831EC
:10F7200009F468C048F4253109F49DC008F41CC1EF
:10F73000263109F419C162C12A3109F44EC008F416
:10F740006EC02B3109F43DC02D3109F057C19D81A8
:10F75000903339F48F818823A9F08130A9F0E1E05A
:10F7600016C0892F807591F0903519F4E0E0F0E033
:10F7700004C0983559F4E3E0F0E089E08093570045
:10F78000E49105C0EEE103C0E8E901C0E0E01A82BF
:10F790001B829C831D82EE831F82F7E0AF2EB12C6B
:10F7A00032C1EA81E059E33028F4F0E0E050FE4F46
:10F7B000808101C080E01A828B833FC0552453941E
:10F7C000D1C08D81882321F0813021F081E003C0F8
:10F7D0008EE101C088E91A8207C01A82E1E0F0E0F8
:10F7E00089E08093570084918B831C8274E0A72E5C
:10F7F000B12C09C18B81803549F48C81883019F492
:10F80000E2E0F0E005C0E0E0F0E002C0E3E0F0E0BC
:10F8100089E080935700E4911A82EB83E6CF8D81D3
:10F82000836C99E0E1E0F0E0082E90935700E895B2
:10F8300007B600FCFDCF1A821B8263E0A62EB12C16
:10F84000E2C08A81CB80D12CE12CF12C7601DD2421
:10F85000CC24F82A8D81C82A8C81D82ACC0CDD1CB6
:10F86000EE1CFF1C7FC0AA80B12CBA2CAA248B816D
:10F87000A82A233109F044C0D701C6018827811581
:10F8800030EE930733E0A307B10508F06BC023E027
:10F89000FC01A0935B0020935700E89507B600FC9D
:10F8A000FDCF8B85B701A601DE011B9621E01296E4
:10F8B000FD013197308190E0932B0C01FA016093A8
:10F8C0005B0020935700E89511244E5F5F4F6F4F08
:10F8D0007F4F82E0A81AB10811F08C91E8CF85E043
:10F8E000F601E0925B0080935700E89507B600FCB4
:10F8F000FDCF81E180935700E8956A017B0132C01A
:10F90000A70196015695479537952795CA5DDE4F15
:10F91000288339834A835B83C652D1403E013BE052
:10F92000630E711C812C912C8A149B0489F0D301E5
:10F930006D913D01CA5DDE4F88819981C652D140EB
:10F94000880D991D0F94C9FDBFEF8B1A9B0AECCF50
:10F95000A12CB12C880C991CAA1CBB1CC80CD91C4E
:10F96000EA1CFB1C1A824CC08A8190E0982F8827E1
:10F970003B81832B5C01E3E0AE0EB11C1A82243183
:10F9800099F4DE011396EBBEF601279136912C9384
:10F990001296FD0131973083F2E0CF0ED11CE11CAD
:10F9A000F11C029781F728C0FE0133969C01B70134
:10F9B000A60141BD652E762E872E992462BC4F5F2D
:10F9C0005F4F6F4F7F4FF89AA0B5A1932150310937
:10F9D00081F7AC014150510960E070E04F5F5F4F2B
:10F9E0006F4F7F4FC40ED51EE61EF71EA3E0B0E09A
:10F9F000AC0FBD1FA80FB91F1C9205C080EC8A83F5
:10FA000032E0A32EB12C8BE10F9476F0C65DDE4F71
:10FA10008881CA52D1400F9476F08B2D0F9476F0E6
:10FA20008A2D0F9476F085E1C65DDE4F7880CA524C
:10FA3000D14078267A248EE00F9476F07B249E01C4
:10FA40002F5F3F4F4901A20EB31E8A149B0441F061
:10FA5000D4016D904D01862D0F9476F07624F5CF6C
:10FA6000872D0F9476F0C65DDE4F2881CA52D140B3
:10FA70002F5FC65DDE4F2883CA52D14085B18058C2
:10FA800085B940E050E0552011F40D947FF48DECE1
:10FA900091EFA0E0B0E0A360C25EDE4F888399835F
:10FAA000AA83BB83CE51D14027982F9884E690E05B
:10FAB0000F941DF200008091C0008D7F8093C000E4
:10FAC00081E180935700E895EE27FF270994FFCF47
:10FAD0002BE1722E61E0A3CD190165E0A0CD61306C
:10FAE00009F4A2CD08F49BCDA9CD60E098CD97FB99
:10FAF000072E16F4009407D077FD09D00F94ADFDC2
:10FB000007FC05D03EF4909581959F4F0895709520
:10FB100061957F4F0895A1E21A2EAA1BBB1BFD0120
:10FB20000DC0AA1FBB1FEE1FFF1FA217B307E407DC
:10FB3000F50720F0A21BB30BE40BF50B661F771F34
:10FB4000881F991F1A9469F7609570958095909514
:10FB50009B01AC01BD01CF010895AA1BBB1B51E164
:10FB600007C0AA1FBB1FA617B70710F0A61BB70B2D
:10FB7000881F991F5A95A9F780959095BC01CD01D2
:10FB80000895F999FECF92BD81BDF89A992780B565
:10FB90000895262FF999FECF1FBA92BD81BD20BDD1
:10FBA0000FB6F894FA9AF99A0FBE01960895F89450
:02FBB000FFCF85
:04FBB2000F020A0034
:040000033000E000E9
:00000001FF
