:020000021000EC
:10E000000C9474F10C949BF10C949BF10C949BF187
:10E010000C949BF10C949BF10C949BF10C949BF150
:10E020000C949BF10C949BF10C949BF10C949BF140
:10E030000C949BF10C949BF10C949BF10C949BF130
:10E040000C949BF10C949BF10C949BF10C949BF120
:10E050000C949BF10C949BF10C949BF10C949BF110
:10E060000C949BF10C949BF10C949BF10C949BF100
:10E070000C949BF10C949BF10C949BF10C949BF1F0
:10E080000C949BF10C949BF10C949BF1414A4B2115
:10E090008093C6008091C00086FFFCCF8091C000B5
:10E0A00080648093C000089541546D65676131328A
:10E0B00038340073746B353030563220626F6F74B1
:10E0C0006C6F61646572206279204D4C532C206620
:10E0D0006978656420627920414A4B00426F6F7411
:10E0E0006C6F616465723E00436F6D70696C65644E
:10E0F000206F6E203D2000435055205479706520DC
:10E100002020203D20005F5F4156525F415243482E
:10E110005F5F3D2000415652204C696243205665A6
:10E12000723D20004743432056657273696F6E202D
:10E130003D20004350552049442020202020203DF0
:10E1400020004C6F772066757365202020203D20CD
:10E15000004869676820667573652020203D2000AF
:10E160004578742066757365202020203D20004C82
:10E170006F636B20667573652020203D20004D6124
:10E1800079202037203230313900322E302E3000C5
:10E19000342E392E32005623202020414444522070
:10E1A00020206F7020636F64652020202020696E1E
:10E1B000737472756374696F6E2061646472202079
:10E1C00020496E74657272757074006E6F2076658A
:10E1D00063746F7200726A6D702020006A6D702027
:10E1E000005768617420706F72743A00506F7274D7
:10E1F000206E6F7420737570706F72746564004D5B
:10E200007573742062652061206C6574746572009A
:10E21000200057726974696E672045450052656138
:10E2200064696E672045450045452065727220632C
:10E230006E743D00504F525400466C6173685772C3
:10E2400069746520203D2000303D5A65726F206161
:10E25000646472003F3D43505520737461747300D1
:10E26000403D454550524F4D207465737400423D0A
:10E27000426C696E6B204C454400453D44756D70A1
:10E2800020454550524F4D00463D44756D70204627
:10E290004C41534800483D48656C70004C3D4C690A
:10E2A000737420492F4F20506F72747300513D5189
:10E2B00075697400523D44756D702052414D005691
:10E2C0003D73686F7720696E746572727570742023
:10E2D000566563746F727300593D506F727420629B
:10E2E0006C696E6B002A000011241FBECFEFD0E4D2
:10E2F000DEBFCDBF11E0A0E0B1E0EEEFF9EF01E04D
:10E300000BBF02C007900D92A430B107D9F721E0EE
:10E31000A4E0B1E001C01D92A231B207E1F70E9472
:10E32000ADF30C94FDFC00E40EBF0FEF0DBF112404
:10E330001FBE0C94ADF30C9400F0CF92DF92EF92DD
:10E34000FF92CF93FC0144815581668177816A01F8
:10E350007B01CC24A081B18122813381C11480EE64
:10E36000D80681E0E806F10408F031C083E0F60148
:10E37000E0925B0080935700E89507B600FCFDCF64
:10E38000C1E08C911296FD013197E08190E09E2BC7
:10E390000C01FA0160935B00C0935700E8951124CB
:10E3A0004E5F5F4F6F4F7F4F225031091216130699
:10E3B00044F385E0F601E0925B0080935700E89516
:10E3C00007B600FCFDCF81E180935700E895CF911F
:10E3D000FF90EF90DF90CF90089520E030E0281775
:10E3E000390749F0EFECF7E03197F1F700C0000092
:10E3F0002F5F3F4FF4CF0895CF92DF92EF92FF92BD
:10E400006B017C01C40ED11CE11CF11CEBBEF601BA
:10E410008791882341F09FEFC91AD90AE90AF90ABE
:10E420000E9448F0F3CFFF90EF90DF90CF900895D7
:10E430008DE00E9448F08AE00C9448F00E94FCF1C4
:10E440000C9418F2CF93DF93EC018991882319F093
:10E450000E9448F0FACFDF91CF910895CF93C82F53
:10E46000982F92959F7080E3890F8A3310F087E38D
:10E47000890F0E9448F0CF7080E38C0F8A3310F030
:10E4800087E38C0FCF910C9448F00F931F93CF9399
:10E49000DF93EC018B01853691051CF46330710527
:10E4A0004CF0CE0164E670E00E949DFC80E3860F94
:10E4B0000E9448F0CB30D1051CF4023011056CF0FD
:10E4C000CE0164E670E00E949DFC6AE070E00E946C
:10E4D0009DFC80E3860F0E9448F0CE016AE070E068
:10E4E0000E949DFC805DDF91CF911F910F910C9454
:10E4F00048F08091C00087FFFCCF8091C60008954E
:10E50000CF93C82F64E372EECB01A0E0B0E0BC0172
:10E51000CD01816040E00E94FCF18C2F0E9448F008
:10E52000CF910C9418F268E472EECB01A0E0B0E059
:10E53000BC01CD01816040E00E941EF264E572EEF4
:10E54000CB01A0E0B0E0BC01CD01816040E00E94C1
:10E550001EF260E672EECB01A0E0B0E0BC01CD019E
:10E56000816040E00E941EF26EE672EECB01A0E0F8
:10E57000B0E0BC01CD01816040E00E941EF26AE77C
:10E5800072EECB01A0E0B0E0BC01CD01816040E0C3
:10E590000E941EF268E872EECB01A0E0B0E0BC0180
:10E5A000CD01816040E00E941EF265E972EECB0170
:10E5B000A0E0B0E0BC01CD01816040E00E941EF20D
:10E5C0006CE972EECB01A0E0B0E0BC01CD0181604E
:10E5D00040E00E941EF26DEA72EECB01A0E0B0E0D6
:10E5E000BC01CD01816040E00E941EF264EB72EE3E
:10E5F000CB01A0E0B0E0BC01CD01816040E00E9411
:10E600001EF26FEB72EECB01A0E0B0E0BC01CD01D9
:10E61000816040E00E941EF268ED72EECB01A0E046
:10E62000B0E0BC01CD01816040E00C941EF22F925D
:10E630003F924F925F926F927F928F929F92AF9292
:10E64000BF92CF92DF92EF92FF920F931F93CF93DF
:10E65000DF93CDB7DEB7A0970FB6F894DEBF0FBE3D
:10E66000CDBF282E6A017B01198A00E110E08EE2FD
:10E67000382E81E0C816D104E806F10418F08E2D7A
:10E680000E942EF28D2D0E942EF28C2D0E942EF2D1
:10E6900080E20E9448F08DE20E9448F080E20E94F1
:10E6A00048F0FE0131965F01260137014601F0E195
:10E6B0008F0E911C81E0281661F0281630F092E050
:10E6C00029120BC0F201108108C06BBEF201179134
:10E6D00004C0C2010E94E7FC182F812F0E942EF275
:10E6E00080E20E9448F080EE810FF5018F3510F432
:10E6F000108301C03082FFEF4F1A5F0A6F0A7F0A52
:10E700008FEFA81AB80A84149504A1F690E1C90EF7
:10E71000D11CE11CF11CCE0101960E9422F20E9444
:10E7200018F2015009F0A5CFA0960FB6F894DEBFFD
:10E730000FBECDBFDF91CF911F910F91FF90EF9052
:10E74000DF90CF90BF90AF909F908F907F906F9011
:10E750005F904F903F902F900895CF93DF93CDB768
:10E76000DEB7C054D1400FB6F894DEBF0FBECDBFA8
:10E7700000E40EBF0FEF0DBF94B7F894A89514BE38
:10E7800080916000886180936000109260007894AE
:10E7900093FF05C0E0910401F09105010995559A98
:10E7A0005D9A8091C00082608093C00080E1809378
:10E7B000C40088E18093C1000000C12CD12C7601F7
:10E7C00047EC842E4BE1942EA12CB12C50E2752EF7
:10E7D00000E010E08091C00087FF05C0A8014F5FF6
:10E7E0005F4FB1F326C001151105C1F725E02A9549
:10E7F000F1F700003FEFC31AD30AE30AF30A91E0EE
:10E8000080E041E2C4164EE4D406E104F10408F4C9
:10E8100090E0092F182FC701B601A50194010E94AD
:10E82000B1FC672B682B692BA9F68BB187258BB9B7
:10E83000D1CF4130510511F00C946DFCC55DDE4F18
:10E8400019821882CB52D14000E010E0C65DDE4F45
:10E850001882CA52D140712C212C312CC12CD12CC0
:10E8600076018CED91EE4C01A12CB12CD501C401A7
:10E87000A160CB5CDE4F88839983AA83BB83C55399
:10E88000D14085ED91EE4C01A12CB12CD501C401F4
:10E89000A160C75CDE4F88839983AA83BB83C95379
:10E8A000D14080E090E060E041305105E1F0882403
:10E8B000839432E1932E3AE7A32EB12C2091C0002D
:10E8C00027FD11C051E0851A9108A108B108B1F7E0
:10E8D000ABBEF401279136912F3F3F4F41F3EE2716
:10E8E000FF270994E4CF4091C600C55DDE4F288123
:10E8F0003981CB52D1402F5F3F4FC55DDE4F398309
:10E900002883CB52D140413209F099C52A303105D4
:10E9100008F0E3C50F5F1F4F0330110509F0DFC595
:10E9200025E0A22EB12C09E110E081E20E9448F01E
:10E9300001501109D1F70E9418F231E0A31AB10871
:10E9400091F710920E0110920F0110921001109287
:10E95000110110920A0110920B0110920C011092F9
:10E960000D011092060110920701109208011092F9
:10E97000090183EB90EEA0E0B0E09C01AD014160A5
:10E98000CA5DDE4F288339834A835B83C652D140F8
:10E9900040E0CA5DDE4F688179818A819B81C652E1
:10E9A000D1400E941EF20E9493F28CED90EEA0E006
:10E9B000B0E09C01AD014160C35DDE4F2883398327
:10E9C0004A835B83CD52D1408BEC91EEA0E0B0E066
:10E9D0009C01AD014160CF5CDE4F288339834A83BF
:10E9E0005B83C153D14040E0C35DDE4F68817981D4
:10E9F0008A819B81CD52D1400E94FCF10E9479F224
:10EA0000182F803608F01F75103230F0812F0E94C9
:10EA100048F080E20E9448F0163409F4A8C208F0D9
:10EA200011C1103409F47FC108F005C1103309F495
:10EA30005EC11F3309F0F7C464E572EECB01A0E0BC
:10EA4000B0E0BC01CD01816042E00E941EF240E0D6
:10EA5000CA5DDE4F688179818A819B81C652D1402F
:10EA60000E941EF268EE70EECB01A0E0B0E0BC01A7
:10EA7000CD01816040E00E94FCF16EE771EECB01B8
:10EA8000A0E0B0E0BC01CD01816040E00E941EF238
:10EA900067EF70EECB01A0E0B0E0BC01CD0181607A
:10EAA00040E00E94FCF168EA70EECB01A0E0B0E02B
:10EAB000BC01CD01816040E00E941EF266E071EE73
:10EAC000CB01A0E0B0E0BC01CD01816040E00E943C
:10EAD000FCF161E070E083E390E00E9445F20E9467
:10EAE00018F264E271EECB01A0E0B0E0BC01CD0110
:10EAF000816040E00E94FCF160E971EECB01A0E092
:10EB0000B0E0BC01CD01816040E00E941EF265E1F1
:10EB100071EECB01A0E0B0E0BC01CD01816040E02E
:10EB20000E94FCF16AE871EECB01A0E0B0E0BC010C
:10EB3000CD01816040E00E941EF263E371EECB01E3
:10EB4000A0E0B0E0BC01CD01816040E00E94FCF19A
:10EB50008EE10E942EF287E90E942EF285E00E944B
:10EB60002EF20E9418F262E471EECB01A0E0B0E058
:10EB7000BC01CD01816040E00E94FCF119E0E0E0C1
:10EB8000F0E01093570084910E942EF20E9418F238
:10EB900061E571EECB01A0E0B0E0BC01CD01816088
:10EBA00040E00E94FCF1E3E0F0E010935700849114
:10EBB0000E942EF20E9418F260E671EECB01A0E0F6
:10EBC000B0E0BC01CD01816040E00E94FCF1E2E0D8
:10EBD000F0E01093570084910E942EF20E9418F2E8
:10EBE0006FE671EECB01A0E0B0E0BC01CD01816029
:10EBF00040E00E94FCF1E1E0F0E0109357008491C6
:10EC00000E942EF20E9418F269E372EECB01A0E09E
:10EC1000B0E0BC01CD01816040E00E94FCF181E0E8
:10EC20000E942EF280EE0E942EF28CE80E942EF2BC
:10EC30000E9418F2D8CE123409F449C1153409F4EF
:10EC400066C1F1C3113509F4CAC1F0F4183409F4EE
:10EC5000B8C11C3409F0E7C36CE972EECB01A0E047
:10EC6000B0E0BC01CD01816042E00E941EF281E46F
:10EC70000E9480F282E40E9480F283E40E9480F28B
:10EC800084E40E9480F2AFCE163509F4B8C119357C
:10EC900009F455C3123509F0C6C364EB72EECB011B
:10ECA000A0E0B0E0BC01CD01816042E00E941EF214
:10ECB00040910E0150910F0160911001709111016E
:10ECC00082E00E9417F380910E0190910F01A091B4
:10ECD0001001B09111019F5FAF4FBF4F80930E01A4
:10ECE00090930F01A0931001B09311017CCE68E4C2
:10ECF00072EECB01A0E0B0E0BC01CD01816042E04A
:10ED00000E941EF210920A0110920B0110920C0147
:10ED100010920D0110920E0110920F01109210012D
:10ED20001092110199C060E672EECB01A0E0B0E054
:10ED3000BC01CD01816042E00E941EF262E172EEF0
:10ED4000CB01A0E0B0E0BC01CD01816040E00E94B9
:10ED50001EF20E9418F2812C912C540180E192EE57
:10ED60002C01612C712C689460F8CA5DDE4F88819B
:10ED70009981AA81BB81C652D140880D991DAA1DD7
:10ED8000BB1DABBFFC0117911A32D9F0811442E0D0
:10ED90009406A104B104A9F0612FC4010E94EFFC04
:10EDA000111106C040E0C301B2010E94FCF103C092
:10EDB000812F0E9448F03FEF831A930AA30AB30AF7
:10EDC000D4CF0E9418F20E9418F26DE172EECB01CE
:10EDD000A0E0B0E0BC01CD01816040E00E941EF2E5
:10EDE0000E9418F2812C912C540100E010E080E187
:10EDF00092EE2C01612C712C689460F8CA5DDE4F94
:10EE000088819981AA81BB81C652D140880D991D04
:10EE1000AA1DBB1DABBFFC012791CE5DDE4F288331
:10EE2000C252D1402A3209F50E9418F20E9418F20B
:10EE300068E272EECB01A0E0B0E0BC01CD018160E0
:10EE400040E00E94FCF161E070E0C8010E9445F2E0
:10EE50000E9418F20E9418F2109206011092070107
:10EE60001092080110920901BECD811432E0930680
:10EE7000A104B104C9F2C4010E94E7FC282F81114A
:10EE80000BC040E0C301B201C35CDE4F2883CD5309
:10EE9000D1400E94FCF107C0C35CDE4F2883CD53F4
:10EEA000D1400E9448F0C35CDE4F2881CD53D14051
:10EEB000CE5DDE4F5881C252D140251711F00F5F51
:10EEC0001F4F8FEF881A980AA80AB80A97CF6EE6E4
:10EED00072EECB01A0E0B0E0BC01CD01816042E068
:10EEE0000E941EF2559A5D9A8091C00087FD0CC069
:10EEF0005D9884E690E00E94EDF15D9A84E690E0F2
:10EF00000E94EDF1F1CF12B80E9479F26CCD6AE760
:10EF100072EECB01A0E0B0E0BC01CD01816042E027
:10EF20000E941EF240910601509107016091080174
:10EF30007091090181E00E9417F380910601909180
:10EF40000701A0910801B09109019F5FAF4FBF4F2A
:10EF50008093060190930701A0930801B0930901E3
:10EF600081159041A105B10508F43DCD75CF68E844
:10EF700072EECB01A0E0B0E0BC01CD01816042E0C7
:10EF80000E941EF240910A0150910B0160910C0108
:10EF900070910D0180E00E9417F380910A01909119
:10EFA0000B01A0910C01B0910D019F5FAF4FBF4FBE
:10EFB00080930A0190930B01A0930C01B0930D0173
:10EFC00012CD65E972EECB01A0E0B0E0BC01CD014D
:10EFD000816042E00E941EF20E9493F204CD6DEA2D
:10EFE00072EECB01A0E0B0E0BC01CD01816042E057
:10EFF0000E941EF200E010E05524539483C26FEB90
:10F0000072EECB01A0E0B0E0BC01CD01816042E036
:10F010000E941EF268EA70EECB01A0E0B0E0BC01F5
:10F02000CD01816040E00E941EF266E971EECB01E5
:10F03000A0E0B0E0BC01CD01816040E00E941EF282
:10F0400000E010E0412C512C3201A30192015695B1
:10F05000479537952795CE5DDE4F288339834A83C0
:10F060005B83C252D1400F5F1F4F62E070E0C80166
:10F070000E9445F280E20E9448F08DE20E9448F032
:10F0800080E20E9448F080E00E942EF2CE5DDE4FCA
:10F090008881C252D1400E942EF280E20E9448F044
:10F0A0008DE30E9448F080E20E9448F06BBEF201BE
:10F0B0009790D301C2010196A11DB11DABBFFC0108
:10F0C0008790D301C2010296A11DB11DABBFFC0107
:10F0D000A790D301C2010396A11DB11DABBFFC01D6
:10F0E000B79034E0430E511C611C711C482D50E058
:10F0F00060E070E0762F652F542F4427490D511D95
:10F10000611D711D882DC35CDE4F4883CD53D140F6
:10F11000C25CDE4F5883CE53D140C15CDE4F688362
:10F12000CF53D140C05CDE4F7883C054D1400E94A1
:10F130002EF280E20E9448F0892D0E942EF280E299
:10F140000E9448F08B2D0E942EF280E20E9448F02F
:10F150008A2D0E942EF280E20E9448F0C35CDE4FAE
:10F160004881CD53D140C25CDE4F5881CE53D1404F
:10F17000C15CDE4F6881CF53D140C05CDE4F7881E7
:10F18000C054D1404F3F8FEF58076105710561F4BE
:10F1900040E0CF5CDE4F688179818A819B81C153D9
:10F1A000D1400E94FCF1C4C0DB01CA018827907CD9
:10F1B000AA27BB278115904CA105B105C9F54A01C5
:10F1C0005B01FFE39F22AA24BB24CE5DDE4F888132
:10F1D0009981AA81BB81C252D140880D991DAA1D77
:10F1E000BB1D9C01AD01220F331F441F551FCE5D77
:10F1F000DE4F288339834A835B83C252D14040E08B
:10F20000C75CDE4F688179818A819B81C953D14077
:10F210000E94FCF1892D0E942EF2882D0E942EF270
:10F2200080E20E9448F08EE30E9448F080E070C0C7
:10F230004E705E7F662777274C3054496105710513
:10F2400009F076C08B2D90E0A0E0B0E0BA2FA92F96
:10F25000982F88278A0D911DA11DB11D492D417040
:10F2600050E060E070E0BA0155274427480F591F6D
:10F270006A1F7B1F892D807F90E0A0E0B0E0E1E174
:10F28000880F991FAA1FBB1FEA95D1F7840F951FFE
:10F29000A61FB71F282D2170822E912CA12CB12CD6
:10F2A000F5E1880C991CAA1CBB1CFA95D1F7880EB5
:10F2B000991EAA1EBB1EA5019401220F331F441FD5
:10F2C000551FCE5DDE4F288339834A835B83C2524C
:10F2D000D14040E0CB5CDE4F688179818A819B819F
:10F2E000C553D1400E94FCF18A2D0E942EF2892D37
:10F2F0000E942EF2882D0E942EF280E20E9448F099
:10F300008EE30E9448F0CC5DDE4F8881C452D1402C
:10F310000E942EF2CD5DDE4F8881C352D1400E9403
:10F320002EF2CE5DDE4F8881C252D1400E942EF275
:10F330000E9418F20332110509F087CE54CB68ED14
:10F3400072EECB01A0E0B0E0BC01CD01816042E0F3
:10F350000E941EF261EE71EECB01A0E0B0E0BC01B4
:10F36000CD01816040E00E94FCF10E9479F2182FEB
:10F370001F75812F0E9448F00E9418F28FEB810FB9
:10F380008A3108F04DC01234D1F030F4113409F054
:10F3900044C08FEF81B907C0133409F11434E9F583
:10F3A0008FEF8AB92CC08091C00087FDACCD82B1AF
:10F3B000809582B988EC90E00E94EDF1F4CF8FEF58
:10F3C00084B98091C00087FD08C085B1809585B95A
:10F3D00088EC90E00E94EDF1F4CF15B895CD8FEF59
:10F3E00087B98091C00087FD08C088B1809588B931
:10F3F00088EC90E00E94EDF1F4CF18B885CD8091B3
:10F40000C00087FD08C08BB180958BB988EC90E077
:10F410000E94EDF1F4CF1BB877CD6CEE71EE05C014
:10F420006FEF71EE02C060E172EECB01A0E0B0E0E0
:10F43000BC01CD01816040E00E941EF2D4CA63305D
:10F4400049F120F4613099F050F01BC0653089F12A
:10F4500038F1663009F050C000E010E04AC000E02A
:10F4600010E04B3109F45AC240E050E01DCA00E000
:10F4700010E07426C65DDE4F4883CA52D14062E078
:10F48000F3CF00E010E0842F90E0982F88277426B7
:10F4900063E0EACF00E010E0842B742664E0E4CF60
:10F4A00000E010E04E3009F046C27426212C312CC9
:10F4B0003AC200E010E091012F5F3F4FE1E0F0E041
:10F4C000EC0FFD1FE20DF31D40837426281739074A
:10F4D00009F028C21C0166E0C7CF00E010E06330ED
:10F4E000D9F208F422C2653031F308F424C2663040
:10F4F00029F4471120C205C000E010E0673009F090
:10F50000B3CF512C2981233109F4D2C068F52630BC
:10F5100009F4BCC000F5223009F449C1233009F4D4
:10F5200065C0213009F08FC11A8288E08B8381E4A5
:10F530008C8386E58D8382E58E8389E48F8383E5E2
:10F54000888780E589878FE58A8782E38B87EBE070
:10F55000AE2EB12C7DC1213109F455C008F073C124
:10F56000203109F424C16FC1283109F468C048F47E
:10F57000253109F49DC008F41CC1263109F419C1D4
:10F5800062C12A3109F44EC008F46EC02B3109F46F
:10F590003DC02D3109F057C19D81903339F48F81E1
:10F5A0008823A9F08130A9F0E5E016C0892F807585
:10F5B00091F0903519F4E0E0F0E004C0983559F48A
:10F5C000E3E0F0E089E080935700E49105C0EEE1CC
:10F5D00003C0E7E901C0E0E01A821B829C831D8220
:10F5E000EE831F82F7E0AF2EB12C32C1EA81E059E1
:10F5F000E33028F4F0E0E050FF4F808101C080E06C
:10F600001A828B833FC055245394D1C08D818823A7
:10F6100021F0813021F085E003C08EE101C087E94F
:10F620001A8207C01A82E1E0F0E089E08093570077
:10F6300084918B831C8274E0A72EB12C09C18B812D
:10F64000803549F48C81883019F4E2E0F0E005C09F
:10F65000E0E0F0E002C0E3E0F0E089E080935700F2
:10F66000E4911A82EB83E6CF8D81836C99E0E1E02F
:10F67000F0E0082E90935700E89507B600FCFDCF08
:10F680001A821B8263E0A62EB12CE2C08A81CB8055
:10F69000D12CE12CF12C7601DD24CC24F82A8D81AB
:10F6A000C82A8C81D82ACC0CDD1CEE1CFF1C7FC024
:10F6B000AA80B12CBA2CAA248B81A82A233109F064
:10F6C00044C0D701C6018827811530EE930731E089
:10F6D000A307B10508F06BC023E0FC01A0935B0019
:10F6E00020935700E89507B600FCFDCF8B85B70146
:10F6F000A601DE011B9621E01296FD0131973081B3
:10F7000090E0932B0C01FA0160935B00209357006B
:10F71000E89511244E5F5F4F6F4F7F4F82E0A81A2C
:10F72000B10811F08C91E8CF85E0F601E0925B0022
:10F7300080935700E89507B600FCFDCF81E18093E8
:10F740005700E8956A017B0132C0A70196015695E2
:10F75000479537952795CA5DDE4F288339834A83BD
:10F760005B83C652D1403E013BE0630E711C812C8D
:10F77000912C8A149B0489F0D3016D913D01CA5DDF
:10F78000DE4F88819981C652D140880D991D0E9413
:10F79000EFFCBFEF8B1A9B0AECCFA12CB12C880C8D
:10F7A000991CAA1CBB1CC80CD91CEA1CFB1C1A8285
:10F7B0004CC08A8190E0982F88273B81832B5C0185
:10F7C000E3E0AE0EB11C1A82243199F4DE011396E7
:10F7D000EBBEF601279136912C931296FD013197DD
:10F7E0003083F2E0CF0ED11CE11CF11C029781F7AF
:10F7F00028C0FE0133969C01B701A60141BD652ECC
:10F80000762E872E992462BC4F5F5F4F6F4F7F4FDC
:10F81000F89AA0B5A1932150310981F7AC0141506C
:10F82000510960E070E04F5F5F4F6F4F7F4FC40E34
:10F83000D51EE61EF71EA3E0B0E0AC0FBD1FA80F5B
:10F84000B91F1C9205C080EC8A8332E0A32EB12C34
:10F850008BE10E9448F0C65DDE4F8881CA52D140DC
:10F860000E9448F08B2D0E9448F08A2D0E9448F09B
:10F8700085E1C65DDE4F7880CA52D14078267A2471
:10F880008EE00E9448F07B249E012F5F3F4F49018C
:10F89000A20EB31E8A149B0441F0D4016D904D0159
:10F8A000862D0E9448F07624F5CF872D0E9448F0DF
:10F8B000C65DDE4F2881CA52D1402F5FC65DDE4F44
:10F8C0002883CA52D1409BB180E289278BB940E09E
:10F8D00050E0552011F40C9451F48DE991EFA0E023
:10F8E000B0E0A160C25EDE4F88839983AA83BB83A8
:10F8F000CE51D14055985D9884E690E00E94EDF19C
:10F9000000008091C0008D7F8093C00081E18093D2
:10F910005700E895EE27FF270994FFCF2BE1722EC1
:10F9200061E0A2CD190165E09FCD613009F4A1CD60
:10F9300008F49ACDA8CD60E097CD97FB072E16F47A
:10F94000009407D077FD09D00E94D3FC07FC05D0B6
:10F950003EF4909581959F4F0895709561957F4FE6
:10F960000895A1E21A2EAA1BBB1BFD010DC0AA1F00
:10F97000BB1FEE1FFF1FA217B307E407F50720F018
:10F98000A21BB30BE40BF50B661F771F881F991F93
:10F990001A9469F760957095809590959B01AC01DC
:10F9A000BD01CF010895AA1BBB1B51E107C0AA1FCF
:10F9B000BB1FA617B70710F0A61BB70B881F991F10
:10F9C0005A95A9F780959095BC01CD010895F999B4
:10F9D000FECF92BD81BDF89A992780B50895262F54
:10F9E000F999FECF1FBA92BD81BD20BD0FB6F89424
:0EF9F000FA9AF99A0FBE01960895F894FFCF87
:04F9FE000F020A00EA
:040000031000E00009
:00000001FF
