:020000023000CC
:10E000000D9489F10D94B2F10D94B2F10D94B2F129
:10E010000D94B2F10D94B2F10D94B2F10D94B2F1F0
:10E020000D94B2F10D94B2F10D94B2F10D94B2F1E0
:10E030000D94B2F10D94B2F10D94B2F10D94B2F1D0
:10E040000D94B2F10D94B2F10D94B2F10D94B2F1C0
:10E050000D94B2F10D94B2F10D94B2F10D94B2F1B0
:10E060000D94B2F10D94B2F10D94B2F10D94B2F1A0
:10E070000D94B2F10D94B2F10D94B2F10D94B2F190
:10E080000D94B2F10D94B2F10D94B2F10D94B2F180
:10E090000D94B2F10D94B2F10D94B2F10D94B2F170
:10E0A0000D94B2F10D94B2F10D94B2F10D94B2F160
:10E0B0000D94B2F10D94B2F10D94B2F10D94B2F150
:10E0C0000D94B2F10D94B2F10D94B2F10D94B2F140
:10E0D0000D94B2F10D94B2F10D94B2F10D94B2F130
:10E0E0000D94B2F141546D656761323536300041AF
:10E0F000726475696E6F206578706C6F72657220DE
:10E1000073746B3530305632206279204D4C530099
:10E11000426F6F746C6F616465723E004875683F52
:10E1200000436F6D70696C6564206F6E203D200048
:10E130004350552054797065202020203D20005FF9
:10E140005F4156525F415243485F5F3D2000415658
:10E1500052204C696243205665723D20004743437C
:10E160002056657273696F6E203D20004350552024
:10E1700049442020202020203D20004C6F7720663D
:10E18000757365202020203D20004869676820665F
:10E190007573652020203D200045787420667573D6
:10E1A00065202020203D20004C6F636B2066757336
:10E1B000652020203D20005365702032342032300D
:10E1C000313100312E362E3800342E332E350056A4
:10E1D00023202020414444522020206F7020636F70
:10E1E00064652020202020696E73747275637469E1
:10E1F0006F6E2061646472202020496E74657272B3
:10E20000757074006E6F20766563746F7200726A49
:10E210006D702020006A6D70200057686174207056
:10E220006F72743A00506F7274206E6F7420737541
:10E2300070706F72746564004D7573742062652030
:10E2400061206C6574746572002000577269747483
:10E25000696E672045450052656164696E672045B7
:10E26000450045452065727220636E743D00504F35
:10E27000525400303D5A65726F2061646472003FF1
:10E280003D43505520737461747300403D454550C3
:10E29000524F4D207465737400423D426C696E6B41
:10E2A000204C454400453D44756D70204545505215
:10E2B0004F4D00463D44756D7020464C415348001B
:10E2C000483D48656C70004C3D4C69737420492F83
:10E2D0004F20506F72747300513D51756974005234
:10E2E0003D44756D702052414D00563D73686F7707
:10E2F00020696E7465727275707420566563746FF0
:10E30000727300593D506F727420626C696E6B00BD
:10E310002A0011241FBECFEFD1E2DEBFCDBF01E046
:10E320000CBF12E0A0E0B2E0ECE9FDEF03E00BBFB0
:10E3300002C007900D92A030B107D9F712E0A0E01B
:10E34000B2E001C01D92AC30B107E1F70F9464F365
:10E350000D94CCFE01E20EBF0FEF0DBF11241FBEC6
:10E360000D9464F30D9400F020E030E040ED57E0B0
:10E3700005C0FA013197F1F72F5F3F4F2817390792
:10E38000C0F308959C01442737FD4095542FDA01CE
:10E39000C901860F911DA11DB11DABBFFC01879165
:10E3A000882369F08093C6008091C00086FFFCCF6F
:10E3B0008091C00080648093C0006F5FE8CF0895B3
:10E3C0008DE08093C6008091C00086FFFCCF8091D5
:10E3D000C00080648093C0008AE08093C600809172
:10E3E000C00086FFFCCF8091C00080648093C00095
:10E3F00008950F94C2F10F94E0F10895FC0190810B
:10E40000992359F09093C6008091C00086FFFCCFFD
:10E410008091C00080648093C0003196992379F781
:10E420000895282F982F92959F70892F805D8A33A9
:10E4300008F0895F8093C6008091C00086FFFCCF02
:10E440008091C00080648093C000822F8F70982FCD
:10E45000905D9A3308F0995F9093C6008091C00058
:10E4600086FFFCCF8091C00080648093C000089537
:10E470009C01FB01853691051CF46330710594F015
:10E48000C90164E670E00F946DFE605D7F4F60939C
:10E49000C6008091C00086FFFCCF8091C0008064E0
:10E4A0008093C0002B30310514F43297B4F0C901C9
:10E4B00064E670E00F946DFE6AE070E00F946DFE0C
:10E4C000605D7F4F6093C6008091C00086FFFCCFE7
:10E4D0008091C00080648093C000C9016AE070E050
:10E4E0000F946DFEC0968093C6008091C00086FF99
:10E4F000FCCF8091C00080648093C00008951F937A
:10E50000182F8EE692EE60E00F94C2F11093C600D1
:10E510008091C00086FFFCCF8091C0008064809312
:10E52000C0000F94E0F11F9108952F923F924F92F7
:10E530005F926F927F928F929F92AF92BF92CF9293
:10E54000DF92EF92FF920F931F93DF93CF93CDB79C
:10E55000DEB762970FB6F894DEBF0FBECDBF382E80
:10E56000622ECA01DB015C016D01772420E2222EBC
:10E570002E010894411C511C8BC081E0A81680E03C
:10E58000B80681E0C80680E0D80628F0C601AA27B0
:10E59000BB270F9411F2BB27AD2D9C2D8B2D0F9413
:10E5A00011F28A2D0F9411F22092C6008091C000C2
:10E5B00086FFFCCF8091C00080648093C0009DE204
:10E5C0009093C6008091C00086FFFCCF8091C00070
:10E5D00080648093C0002092C6008091C00086FFB6
:10E5E000FCCF8091C00080648093C00019828601B6
:10E5F000750188249924A1E03A1651F03A1620F0CA
:10E60000B2E03B1661F409C00BBFF701779007C079
:10E61000C7010F94B6FE782E02C0F7017080872DD7
:10E620000F9411F22092C6008091C00086FFFCCFAB
:10E630008091C00080648093C000872D8052F401D7
:10E64000EF70F0708F3520F4E40DF51D708204C07A
:10E65000E40DF51D8EE280830894E11CF11C011D80
:10E66000111D0894811C911C90E18916910409F0F8
:10E67000C2CF80E190E0A0E0B0E0A80EB91ECA1EB3
:10E68000DB1E198AC2010F94FEF10F94E0F16A9427
:10E69000662009F072CF62960FB6F894DEBF0FBE07
:10E6A000CDBFCF91DF911F910F91FF90EF90DF9041
:10E6B000CF90BF90AF909F908F907F906F905F9022
:10E6C0004F903F902F9008952F923F924F925F92DC
:10E6D0006F927F928F929F92AF92BF92CF92DF9272
:10E6E000EF92FF920F931F93DF93CF93CDB7DEB7D7
:10E6F000CD53D1400FB6F894DEBF0FBECDBF01E2BF
:10E700000EBF0FEF0DBF279A2F9A8091C000826035
:10E710008093C00080E18093C40088E18093C100B1
:10E72000000083E78093C6008091C00086FFFCCF85
:10E730008091C00080648093C00084E78093C6000D
:10E740008091C00086FFFCCF8091C00080648093E0
:10E75000C0008BE68093C6008091C00086FFFCCF8E
:10E760008091C00080648093C00086E78093C600DB
:10E770008091C00086FFFCCF8091C00080648093B0
:10E78000C00082E38093C6008091C00086FFFCCF6A
:10E790008091C00080648093C0008DE08093C600AB
:10E7A0008091C00086FFFCCF8091C0008064809380
:10E7B000C0008AE08093C6008091C00086FFFCCF35
:10E7C0008091C00080648093C00080E090E020EDE4
:10E7D00037E0F9013197F1F7019684369105C9F7D1
:10E7E000EE24FF248701B4E0AB2EB12CCC24DD2431
:10E7F00024C0C5010197F1F70894E11CF11C011D2B
:10E80000111D21E9E2162FE5F20621E0020720E0C2
:10E81000120718F0A1E0CA2ED12CC801B70127ECCD
:10E820003BE140E050E00F9480FE611571058105E9
:10E83000910519F485B1805885B98091C00087FD94
:10E8400003C0C114D104A9F2A6014F5F5F4FC25E9D
:10E85000DE4F59834883CE51D140C25EDE4F68817E
:10E860007981CE51D1406130710511F00D9420FEB7
:10E87000C05DDE4F19821882C053D14060E0C15D97
:10E88000DE4F1882CF52D140AA24BB24C35DDE4F95
:10E8900019821882CD52D140C05EDE4F1882198293
:10E8A0001A821B82C052D140CE5CDE4F1882198280
:10E8B0001A821B82C253D14080E090E0A0E0B0E019
:10E8C000ABBFFC01A791B691C45CDE4FB983A883AE
:10E8D000CC53D1400D941BFEC25EDE4FE881F9811E
:10E8E000CE51D140319709F52091C600C25EDE4F6E
:10E8F00019821882CE51D14022C02F5F3F4F4F4F17
:10E900005F4F2130F2E13F07FAE74F07F0E05F0782
:10E9100080F0C45CDE4F08811981CC53D1400F5F79
:10E920001F4F19F0EE27FF27099420E030E040E068
:10E9300050E08091C00087FFE0CF2091C600C35D0A
:10E94000DE4F48815981CD52D1404F5F5F4FC35D4B
:10E95000DE4F59834883CD52D140213209F067C63A
:10E960004A30510508F063C60894A11CB11C53E05D
:10E97000A516B10409F05DC600E010E018C061E220
:10E980006093C6008091C00086FFFCCF8091C000DC
:10E9900080648093C0002F5F3F4F2931310579F7A4
:10E9A0000F94E0F10F5F1F4F0530110519F020E0C3
:10E9B00030E0E5CF109208021092090210920A028C
:10E9C00010920B021092040210920502109206029D
:10E9D000109207021092000210920102109202029D
:10E9E000109203028FEE90EE60E00F94F9F180E157
:10E9F00091EE60E00F94C2F18091C00087FFFCCFE0
:10EA00009091C600903608F09F759032B8F09093C0
:10EA1000C6008091C00086FFFCCF8091C00080645A
:10EA20008093C00070E27093C6008091C00086FFA2
:10EA3000FCCF8091C00080648093C000983409F4BA
:10EA4000DBC19934B8F4923409F45DC1933458F4BD
:10EA5000903319F1903308F4E7C59F33A1F1903456
:10EA600009F0E2C5BDC0953409F474C1963409F0CB
:10EA7000DBC59CC1923509F42FC2933538F49C3420
:10EA800009F4F9C1913509F0CFC51CC2963509F4D6
:10EA900049C2993509F0C8C56BC483E792EE62E0BC
:10EAA0000F94F9F1109204021092050210920602DE
:10EAB00010920702109208021092090210920A02A4
:10EAC00010920B0217C18FE792EE62E00F94F9F1FA
:10EAD0008FEE90EE60E00F94F9F181E291EE60E04C
:10EAE0000F94C2F187EB91EE60E00F94F9F180E3AF
:10EAF00091EE60E00F94C2F184EE90EE60E00F942E
:10EB0000F9F18FE391EE60E00F94C2F186E090E0BE
:10EB100061E070E00F9438F20F94E0F18DE591EE32
:10EB200060E00F94C2F189EC91EE60E00F94F9F18E
:10EB30008EE491EE60E00F94C2F183EC91EE60E020
:10EB40000F94F9F18CE691EE60E00F94C2F18EE142
:10EB50000F9411F288E90F9411F281E00F9411F2F1
:10EB60000F94E0F18BE791EE60E00F94C2F119E0B1
:10EB7000E0E0F0E010935700E4918E2F0F9411F233
:10EB80000F94E0F18AE891EE60E00F94C2F1E3E0C7
:10EB9000F0E010935700E4918E2F0F9411F20F9430
:10EBA000E0F189E991EE60E00F94C2F1E2E0F0E07B
:10EBB00010935700E4918E2F0F9411F20F94E0F10F
:10EBC00088EA91EE60E00F94C2F1E1E0F0E010938A
:10EBD00057001491812F0F9411F20F94E0F107CF99
:10EBE0008BE892EE62E00F94F9F18BE492EE60E034
:10EBF0000F94F9F10F94E0F100E010E019C0C801A2
:10EC00006F2D0F94BEFEFF2031F489E492EE60E098
:10EC10000F94C2F10BC0F092C6008091C00086FF35
:10EC2000FCCF8091C00080648093C0000F5F1F4FB5
:10EC3000C80181519F41AA2797FDA095BA2FABBF6C
:10EC4000FC01F7908AE2F81621F092E000301907F3
:10EC5000B1F60F94E0F10F94E0F187E592EE60E0F9
:10EC60000F94F9F10F94E0F100E010E0CC24DD24E2
:10EC70001EC0C8010F94B6FEF82E882331F489E433
:10EC800092EE60E00F94C2F10BC08093C6008091B9
:10EC9000C00086FFFCCF8091C00080648093C000DC
:10ECA000FE1419F00894C11CD11C0F5F1F4FC8013E
:10ECB00081519F41AA2797FDA095BA2FABBFFC01B8
:10ECC000E790AAE2EA1621F0B2E000301B0789F6CD
:10ECD0000F94E0F10F94E0F182E692EE60E00F9481
:10ECE000C2F1C60161E070E00F9438F20F94E0F1D8
:10ECF0000F94E0F1109200021092010210920202B1
:10ED00001092030274CE89E992EE62E00F94F9F159
:10ED1000279A2F9A16C02F9880E090E0E0EDF7E058
:10ED20003197F1F7019684369105C1F72F9A80E06B
:10ED300090E0E0EDF7E03197F1F701968436910528
:10ED4000C1F78091C00087FFE6CF8091C00087FFA8
:10ED5000FCCF64C485EA92EE62E00F94F9F1409131
:10ED6000000250910102609102027091030281E061
:10ED700020E10F9495F28091000290910102A09100
:10ED80000202B091030280509F4FAF4FBF4F80935C
:10ED9000000290930102A0930202B09303028050FC
:10EDA0009041A040B04008F422CEA4CF83EB92EE75
:10EDB00062E00F94F9F140910402509105026091D4
:10EDC00006027091070280E020E10F9495F2809195
:10EDD000040290910502A0910602B09107028050B2
:10EDE0009F4FAF4FBF4F8093040290930502A093B3
:10EDF0000602B0930702FBCD80EC92EE62E00F9426
:10EE0000F9F183E792EE60E00F94F9F18FE792EE6B
:10EE100060E00F94F9F18BE892EE60E00F94F9F165
:10EE200089E992EE60E00F94F9F185EA92EE60E0F4
:10EE30000F94F9F183EB92EE60E00F94F9F180EC1E
:10EE400092EE60E00F94F9F187EC92EE60E00F949F
:10EE5000F9F188ED92EE60E00F94F9F18FED92EE0A
:10EE600060E00F94F9F18AEE92EE60E00F94F9F110
:10EE700083E093EEB9CD87EC92EE62E00F94F9F166
:10EE800081E40F947FF282E40F947FF283E40F9485
:10EE90007FF284E40F947FF285E40F947FF286E49E
:10EEA0000F947FF287E40F947FF288E40F947FF24F
:10EEB0008AE40F947FF28BE40F947FF28CE40F943A
:10EEC0007FF295CD88ED92EE62E00F94F9F19924EE
:10EED0009394AA24BB2413C48FED92EE62E00F94A6
:10EEE000F9F1409108025091090260910A02709173
:10EEF0000B0282E020E10F9495F28091080290913C
:10EF00000902A0910A02B0910B0280509F4FAF4FAF
:10EF1000BF4F8093080290930902A0930A02B09316
:10EF20000B0265CD8AEE92EE62E00F94F9F184EE69
:10EF300090EE60E00F94F9F18FEC91EE60E00F94A9
:10EF4000F9F1662477244301CC5DDE4F19821882E3
:10EF5000C452D1408401730116950795F794E79444
:10EF6000CA5DDE4FE882F9820A831B83C652D14014
:10EF7000CC5DDE4F08811981C452D1400F5F1F4F15
:10EF8000CC5DDE4F19830883C452D140C80162E0D2
:10EF900070E00F9438F210E21093C6008091C00028
:10EFA00086FFFCCF8091C00080648093C0002DE27A
:10EFB0002093C6008091C00086FFFCCF8091C000E6
:10EFC00080648093C00030E23093C6008091C0001E
:10EFD00086FFFCCF8091C00080648093C000CA5D32
:10EFE000DE4F488159816A817B81C652D140BB275F
:10EFF000A72F962F852F0F9411F2CA5DDE4F8881BF
:10F00000C652D1400F9411F250E25093C600809145
:10F01000C00086FFFCCF8091C00080648093C00058
:10F020006DE36093C6008091C00086FFFCCF8091A5
:10F03000C00080648093C00070E27093C60080912D
:10F04000C00086FFFCCF8091C00080648093C00028
:10F050008BBEF3018791C65DDE4F8883CA52D140D3
:10F06000A82EBB24CC24DD240894611C711C811CB7
:10F07000911C8BBEF3018791282E33244424552400
:10F080000894611C711C811C911C8BBEF30197912B
:10F09000C55DDE4F9883CB52D1400894611C711C32
:10F0A000811C911C8BBEF301A791C45DDE4FA88328
:10F0B000CC52D1407DEFE72E7FEFF72E7FEF072F69
:10F0C0007FEF172F6E0C7F1C801E911E142D032DB9
:10F0D000F22CEE24EA0CFB1C0C1D1D1D0F9411F2EA
:10F0E00020E22093C6008091C00086FFFCCF809173
:10F0F000C00080648093C000C65DDE4F8881CA5224
:10F10000D1400F9411F230E23093C6008091C000DC
:10F1100086FFFCCF8091C00080648093C000C45DF6
:10F12000DE4F8881CC52D1400F9411F240E24093DF
:10F13000C6008091C00086FFFCCF8091C000806433
:10F140008093C000C55DDE4F8881CB52D1400F94C3
:10F1500011F250E25093C6008091C00086FFFCCFB0
:10F160008091C00080648093C0006FEFE6166FEF5F
:10F17000F60660E0060760E0160731F484E092EEE0
:10F1800060E00F94C2F1DFC0D801C7018070907CAD
:10F19000A070B0708050904CA040B040D1F58FEF7F
:10F1A0009FE3A0E0B0E0E822F9220A231B23CA5D16
:10F1B000DE4FA880B980CA80DB80C652D140AE0C39
:10F1C000BF1CC01ED11EAA0CBB1CCC1CDD1C8EE0BB
:10F1D00092EE60E00F94C2F1BB27A12F902F8F2DEC
:10F1E0000F9411F28E2D0F9411F290E29093C600BD
:10F1F0008091C00086FFFCCF8091C0008064809326
:10F20000C000AEE3A093C6008091C00086FFFCCF93
:10F2100087C02EE03EEF40E050E0E222F3220423DC
:10F2200015233CE0E31634E9F30630E0030730E051
:10F23000130709F088C0C45DDE4F4881CC52D1402D
:10F24000E42EFF2400E010E0102F0F2DFE2CEE2402
:10F25000C55DDE4F5881CB52D140E50EF11C011D3A
:10F26000111DD601C50181709070A070B070DC01D5
:10F2700099278827E80EF91E0A1F1B1F60EF70E010
:10F2800080E090E0A622B722C822D922A1E1AA0CF0
:10F29000BB1CCC1CDD1CAA95D1F7EA0CFB1C0C1D79
:10F2A0001D1D81E090E0A0E0B0E0282239224A2232
:10F2B0005B22F5E1220C331C441C551CFA95D1F756
:10F2C000E20CF31C041D151D57016801AA0CBB1CA0
:10F2D000CC1CDD1C85E192EE60E00F94C2F1C80108
:10F2E000AA27BB270F9411F2BB27A12F902F8F2D98
:10F2F0000F9411F28E2D0F9411F290E29093C600AC
:10F300008091C00086FFFCCF8091C0008064809314
:10F31000C000AEE3A093C6008091C00086FFFCCF82
:10F320008091C00080648093C000C601AA27BB27DB
:10F330000F9411F2BB27AD2D9C2D8B2D0F9411F244
:10F340008A2D0F9411F20F94E0F1CC5DDE4FE8812D
:10F35000F981C452D140F99709F449CB34E0E32E46
:10F36000F12C012D112D6E0C7F1C801E911EF2CDF3
:10F3700083E093EE62E00F94F9F18AE192EE60E0AF
:10F380000F94C2F18091C00087FFFCCF1091C6009E
:10F390001F751093C6008091C00086FFFCCF80913E
:10F3A000C00080648093C0000F94E0F1812F8154ED
:10F3B0008A3108F036C1163409F495C0173490F438
:10F3C000133409F44EC0143430F41134F1F0123413
:10F3D00009F01DC130C0143409F459C0153409F0C6
:10F3E00016C16BC01A3409F4C4C01B3438F4173486
:10F3F00009F48FC0183409F00AC1A1C01B3409F404
:10F40000D2C01C3409F003C1E8C08FEF81B90DC030
:10F4100082B1809582B980E090E0E0EDF7E031972D
:10F42000F1F70196883C9105C1F78091C00087FFF4
:10F43000EFCF12B8EFC08FEF84B90DC085B18095C2
:10F4400085B980E090E0E0EDF7E03197F1F70196C3
:10F45000883C9105C1F78091C00087FFEFCF15B8B8
:10F46000D9C08FEF87B90DC088B1809588B980E089
:10F4700090E0E0EDF7E03197F1F70196883C9105D7
:10F48000C1F78091C00087FFEFCF18B8C3C08FEFDE
:10F490008AB90DC08BB180958BB980E090E0E0ED2A
:10F4A000F7E03197F1F70196883C9105C1F780911B
:10F4B000C00087FFEFCF1BB8ADC08FEF8DB90DC077
:10F4C0008EB180958EB980E090E0E0EDF7E0319765
:10F4D000F1F70196883C9105C1F78091C00087FF44
:10F4E000EFCF1EB897C08FEF80BB0DC081B3809562
:10F4F00081BB80E090E0E0EDF7E03197F1F7019615
:10F50000883C9105C1F78091C00087FFEFCF11BA09
:10F5100081C08FEF83BB0DC084B3809584BB80E036
:10F5200090E0E0EDF7E03197F1F70196883C910526
:10F53000C1F78091C00087FFEFCF14BA6BC08FEF87
:10F54000809301010FC08091020180958093020198
:10F5500080E090E0E0EDF7E03197F1F70196883C2C
:10F560009105C1F78091C00087FFEDCF1092020195
:10F5700051C08FEF809304010FC0809105018095E9
:10F580008093050180E090E0E0EDF7E03197F1F73E
:10F590000196883C9105C1F78091C00087FFEDCFAF
:10F5A0001092050137C08FEF809307010FC0809143
:10F5B000080180958093080180E090E0E0EDF7E09D
:10F5C0003197F1F70196883C9105C1F78091C00011
:10F5D00087FFEDCF109208011DC08FEF80930A01C5
:10F5E0000FC080910B01809580930B0180E090E02B
:10F5F000E0EDF7E03197F1F70196883C9105C1F70E
:10F600008091C00087FFEDCF10920B0103C085E20F
:10F6100092EEEAC98091C00087FFFCCF8091C600BE
:10F62000E6C988E392EEE0C98CE191EEDDC9AA2437
:10F63000BB24933061F1943028F4913089F09230FA
:10F6400008F508C09530B1F1953040F1963009F0D9
:10F6500052C04DC02B3109F03FC991E06BE13CC96C
:10F66000213041F0C15DDE4FF880CF52D1402F15DF
:10F6700009F030C36227C15DDE4F2883CF52D140ED
:10F6800092E02AC9B22FA0E0622793E025C9822F19
:10F6900090E0A82BB92B622794E01EC92E3009F008
:10F6A00019C3622795E0C05DDE4F19821882C053EE
:10F6B000D14012C9E1E0F0E0EC0FFD1FC05DDE4F6C
:10F6C00008811981C053D140E00FF11F20830F5FE3
:10F6D0001F4FC05DDE4F19830883C053D14062279E
:10F6E0000A171B0709F0F8C8D80196E0F5C82617D5
:10F6F00009F0F0C203C0973009F0EEC8992489815F
:10F70000833109F4FCC08431C8F4863009F4C2C0E6
:10F71000873050F4823009F4F0C0833009F458C0C7
:10F72000813009F00AC23EC0813109F462C08231E1
:10F7300008F0A6C0803109F000C2DFC0883109F4AA
:10F7400072C0893150F4853109F4D9C0853108F48B
:10F7500077C1863109F0F1C173C18A3109F457C00C
:10F760008A3108F47CC08B3109F446C08D3109F030
:10F77000E4C18D81803311F090E00AC08F8188232D
:10F7800011F49EE105C0813011F091E001C098E9CB
:10F790001A821B828D818C831D829E831F8227E0AB
:10F7A00030E0CFC11A8288E08B8381E48C8386E5C8
:10F7B0008D8382E58E8389E48F8383E5888780E566
:10F7C00089878FE58A8782E38B872BE030E0B9C198
:10F7D0008A81813941F0823941F0803911F48FE01A
:10F7E00005C080E003C082E001C08AE01A828B83FA
:10F7F00044C09924939481C08D81882311F48EE1B3
:10F800002CC0813011F081E028C088E926C01A821E
:10F81000E1E0F0E089E08093570084918B831C82C3
:10F8200024E030E08EC18B81803589F48C81883072
:10F8300039F4E2E0F0E089E08093570084910DC054
:10F84000E0E0F0E089E080935700849106C0E3E0B7
:10F85000F0E089E08093570084911A82DFCF8D8198
:10F86000836C99E0E1E0F0E0082E90935700E89572
:10F8700007B600FCFDCF1A821B8223E030E061C195
:10F880001A82CE5CDE4F188219821A821B82C25302
:10F89000D14055C18A8190E0A0E0B0E0582F4427C4
:10F8A000332722278B8190E0A0E0B0E0DC0199278C
:10F8B0008827282B392B4A2B5B2B8D8190E0A0E0E9
:10F8C000B0E0282B392B4A2B5B2B8C8190E0A0E0F9
:10F8D000B0E0BA2FA92F982F8827282B392B4A2B35
:10F8E0005B2B220F331F441F551FC05EDE4F288342
:10F8F00039834A835B83C052D1401A8220C19A81E6
:10F900002B81833149F0C05EDE4F488159816A8185
:10F910007B81C052D1408AC0CE5CDE4F4881598184
:10F920006A817B81C253D140403080EC580783E02C
:10F93000680780E07807F0F483E0FA0160935B00E9
:10F9400080935700E89507B600FCFDCFCE5CDE4FF4
:10F95000488159816A817B81C253D14040505F4FB9
:10F960006F4F7F4FCE5CDE4F488359836A837B8322
:10F97000C253D140C95CDE4F9883C753D140CA5CA3
:10F98000DE4F1882C653D140022F10E0CA5CDE4F12
:10F9900068817981C653D140062B172BC05EDE4F9C
:10F9A000488159816A817B81C052D140DE011B961A
:10F9B00031E08C9111962C9111971296C75CDE4F15
:10F9C0002883C953D140C85CDE4F1882C853D14048
:10F9D00090E0C85CDE4FE881F981C853D1408E2B9E
:10F9E0009F2B0C01FA0160935B0030935700E89560
:10F9F00011244E5F5F4F6F4F7F4F02501040C9F68A
:10FA000085E0C05EDE4FE880F9800A811B81C0522C
:10FA1000D140F70100935B0080935700E89507B64B
:10FA200000FCFDCF81E180935700E8951A82C05E0B
:10FA3000DE4F488359836A837B83C052D1407FC0A5
:10FA4000FA80C55CDE4FF882CB53D140C65CDE4FF6
:10FA50001882CA53D1408B81C82EDD24C65CDE4F8C
:10FA600008811981CA53D140C02AD12A1A828981BA
:10FA7000BE016D5F7F4F843121F59601C05EDE4F80
:10FA8000E880F9800A811B81C052D1400BBFF70189
:10FA900087919691DB018C9311969C936E5F7F4FBB
:10FAA000D801C7010296A11DB11DC05EDE4F88833B
:10FAB0009983AA83BB83C052D14022503040F1F6D3
:10FAC00036C0C05EDE4F288139814A815B81C052D9
:10FAD000D1400894C108D108760100E010E00894F4
:10FAE000C11CD11C0894E11CF11C011D111DE20E6A
:10FAF000F31E041F151F21BDBB27A52F942F832F95
:10FB000082BD2F5F3F4F4F4F5F4FF89A80B5DB01AB
:10FB10008D93BD012E153F054007510761F7C05E6B
:10FB2000DE4F288339834A835B83C052D1409601DC
:10FB30002D5F3F4FFB01108204C080EC8A8322E0DE
:10FB400030E08BE18093C6008091C00086FFFCCF3F
:10FB50008091C00080648093C000C15DDE4FF88159
:10FB6000CF52D140F093C6008091C00086FFFCCFF9
:10FB70008091C00080648093C000432F3093C60002
:10FB80008091C00086FFFCCF8091C000806480938C
:10FB9000C000922F2093C6008091C00086FFFCCF4A
:10FBA0008091C00080648093C0008EE08093C60086
:10FBB0008091C00086FFFCCF8091C000806480935C
:10FBC000C00065E1C15DDE4FE880CF52D1406E25B7
:10FBD00069276427FE01319610C090819093C6007A
:10FBE0008091C00086FFFCCF31968091C000806478
:10FBF0008093C0006927215030402115310569F7F5
:10FC00006093C6008091C00086FFFCCF8091C00049
:10FC100080648093C00085B1805885B9992081F4B3
:10FC2000C15DDE4F0881CF52D1400F5FC15DDE4F15
:10FC30000883CF52D14090E0A0E0B0E00D946CF486
:10FC40008AE68093C6008091C00086FFFCCF809139
:10FC5000C00080648093C0008DE08093C6008091D6
:10FC6000C00086FFFCCF8091C00080648093C000FC
:10FC70008AE08093C6008091C00086FFFCCF80910F
:10FC8000C00080648093C00080E090E020ED37E009
:10FC9000F9013197F1F7019684369105C9F7279854
:10FCA0002F9880E090E020ED37E0F9013197F1F7EF
:10FCB000019684369105C9F700008091C0008D7FC0
:10FCC0008093C00081E180935700E895EE27FF27DD
:10FCD0000994FFCF90E00D946CF497FB092E072652
:10FCE0000AD077FD04D02ED006D000201AF47095EB
:10FCF00061957F4F0895F6F7909581959F4F0895F0
:10FD0000A1E21A2EAA1BBB1BFD010DC0AA1FBB1F1F
:10FD1000EE1FFF1FA217B307E407F50720F0A21B91
:10FD2000B30BE40BF50B661F771F881F991F1A94FE
:10FD300069F760957095809590959B01AC01BD0128
:10FD4000CF010895AA1BBB1B51E107C0AA1FBB1F0F
:10FD5000A617B70710F0A61BB70B881F991F5A9557
:10FD6000A9F780959095BC01CD010895F999FECF32
:10FD700092BD81BDF89A992780B50895262FF999EB
:10FD8000FECF1FBA92BD81BD20BD0FB6F894FA9A7E
:0CFD9000F99A0FBE01960895F894FFCF79
:040000033000E000E9
:00000001FF
